:100000000C94F0000C9418010C9418010C94180135
:100010000C9418010C9418010C9418010C941801FC
:100020000C9418010C9418010C9418010C941801EC
:100030000C9418010C9418010C9418010C941801DC
:100040000C94010F0C9418010C94000E0C94DA0D12
:100050000C9418010C9418010C9418010C941801BC
:100060000C94A30B0C94180100000000240027003E
:100070002A001F1C1F1E1F1E1F1F1E1F1E1F7C3C31
:100080003E5E2B3D3F2F5B5D3B2C2A225C00005ED9
:10009000BCE2613FDD83C29C7E20A3FD1F419DC366
:1000A000217FFCA2401E5F01E3BD3E6082DC237D18
:1000B0009FC1421CFEA0E1BF5D0380DE3C62BEE04A
:1000C000025CDF81633D7C22C09E1D43A1FF461878
:1000D000FAA427799BC584DA3866E5BB5907DB8526
:1000E0006739BAE406581947A5FB7826C49A653BD8
:1000F000D987045AB8E6A7F91B45C6987A24F8A60A
:10010000441A99C7257B3A6486D85B05E7B98CD237
:10011000306EEDB3510F4E10F2AC2F7193CD114FE5
:10012000ADF3702ECC92D38D6F31B2EC0E50AFF197
:10013000134DCE90722C6D33D18F0C52B0EE326CC9
:100140008ED0530DEFB1F0AE4C1291CF2D73CA94F7
:100150007628ABF517490856B4EA6937D58B5709A5
:10016000EBB536688AD495CB2977F4AA4816E9B757
:10017000550B88D6346A2B7597C94A14F6A8742A89
:10018000C896154BA9F7B6E80A54D7896B35000015
:100190000000250028002B000000000800020100DC
:1001A0000003040700000000000000000000000041
:1001B00023002600290004040404040404040202A9
:1001C00002020202030303030303010204081020D6
:1001D0004080010204081020010204081020D922E6
:1001E00011241FBECFEFD8E0DEBFCDBF27E0AEEDBC
:1001F000B2E001C01D92A038B207E1F712E0A0E022
:10020000B1E0E8EEFFE402C005900D92AE3DB1070B
:10021000D9F710E0C0EFD0E004C02197FE010E94A2
:100220009F26CF3ED107C9F70E94511B0C94F2279D
:100230000C940000DC015996ED91FC915A9730978F
:10024000B9F083899489A589B689428553856485E7
:100250007585841B950BA60BB70B811520E89207BB
:10026000A105B10538F08FEF9FE7A0E0B0E0089559
:1002700080E090E00895CF93DF931F92CDB7DEB773
:100280006983DC01ED91FC910280F381E02D41E076
:1002900050E0BE016F5F7F4F09950F90DF91CF91C6
:1002A000089585ED8093BC008091BC0084FDFCCF57
:1002B0001092A405089540912103262F30E0240FC9
:1002C000311D21323105DCF42091A4052430C9F41C
:1002D000FC0180E090E0861758F4309121032191D1
:1002E000DC01AF5FBC4FA30FB11D2C930196F3CF80
:1002F00080912103680F6093210380E0089581E0DD
:10030000089582E00895089508950895E091A6055E
:100310008091A505E81730F4F0E0E955FA4F8081A7
:1003200090E008958FEF9FEF08959091A60580913A
:10033000A505981750F4E92FF0E0E955FA4F208110
:1003400030E09F5F9093A60502C02FEF3FEFC901F9
:1003500008958091A50590E02091A605821B910942
:100360000895CF92DF92EF92FF920F931F93CF9356
:10037000DF937C01CB018A0120915A05222389F069
:10038000EB016B01C40ED51ECC15DD0569F069913A
:10039000D701ED91FC910190F081E02DC701099505
:1003A000F3CF642F0E945B01C801DF91CF911F91B1
:1003B0000F91FF90EF90DF90CF900895CF93DF9350
:1003C0001F92CDB7DEB7698320915A052223D1F061
:1003D00020917D05203240F021E030E0FC013383A4
:1003E000228380E090E015C080915B05E82FF0E06B
:1003F000E45AFA4F998190838F5F80935B058093D5
:100400007D0505C061E0CE0101960E945B0181E09F
:1004100090E00F90DF91CF910895089580E090E0F3
:100420000895CF93DF93EC018D81882379F18C813E
:1004300087FF28C06E857F858889998941E00E9461
:100440006E11882319F1EA8980E2E89FF0011124F6
:10045000EC5AFC4F3097D1F08D81823040F48B897B
:100460009C89AD89BE89848F958FA68FB78F8F8920
:10047000988DA98DBA8D938F828FB58BA48B8C812B
:100480008F778C83DF91CF910C94331180E0DF91D3
:10049000CF910895FC01818D928D009711F00C94FD
:1004A000110208953F924F925F926F927F928F92C6
:1004B0009F92AF92BF92CF92DF92EF92FF920F93F3
:1004C0001F93CF93DF93CDB7DEB72C970FB6F89479
:1004D000DEBF0FBECDBF5C01DC015B968D909C90B2
:1004E0005C971696CD90DD90ED90FC901997C11415
:1004F000D104E104F10439F0BFEFCB1ADB0AEB0AB7
:10050000FB0A312C07C0F401C080D180E280F38067
:1005100033243394F40181859285A385B4859C01AD
:10052000AD012F5F3F4F4F4F5F4F29873A874B8772
:100530005C87260137011D821E821F821886F40106
:1005400081859285A385B4852D813E814F81588513
:10055000281739074A075B0708F063C089859A8521
:10056000AB85BC858C159D05AE05BF0550F482E0BA
:10057000C82ED12CE12CF12C92E0492E512C612C6B
:10058000712C9E012F5F3F4FB701A601C4010E944D
:100590005812882309F445C089819A81AB81BC81B6
:1005A000892B8A2B8B2B41F0260137019FEF491AAB
:1005B000590A690A790A05C0C414D504E604F70487
:1005C00091F02D813E814F8158852F5F3F4F4F4FD6
:1005D0005F4F2D833E834F8358873FEFC31AD30A63
:1005E000E30AF30AACCF0FEF1FEF2FEF3FE0B301A9
:1005F000A201C4010E94B711882399F0D501169673
:100600004D915D916D917C91199741155105610551
:10061000710549F093018201C4010E94B711811153
:1006200002C080E02AC0D50116964D925D926D926F
:100630007C921997332051F0D301C2010196A11D7C
:10064000B11DF40180839183A283B383F50187896F
:10065000908DA18DB28D892B8A2B8B2B69F4D501BE
:1006600057964D925D926D927C925A9714968C910A
:100670001497806814968C9381E02C960FB6F894AA
:10068000DEBF0FBECDBFDF91CF911F910F91FF90C5
:10069000EF90DF90CF90BF90AF909F908F907F9022
:1006A0006F905F904F903F9008958F929F92AF927E
:1006B000BF92CF92DF92EF92FF920F931F93CF934F
:1006C000DF93EC018D81811102C080E078C00B893D
:1006D0001C892D893E890417150726073707A8F3BB
:1006E0006A017B01823029F4CA86DB86EC86FD86AE
:1006F0000DC0C114D104E104F10451F41E821F8223
:10070000188619861A861B861C861D8681E057C0AE
:100710008A849B84AC84BD84EB8DFC8D258530E080
:10072000275F3F4FB501A40141505109610971098B
:10073000022E04C076956795579547950A94D2F78F
:10074000D701C6010197A109B10904C0B695A795C3
:10075000979587952A95D2F784179507A607B70727
:1007600020F089288A288B2871F44F89588D698D4B
:100770007A8D4E835F83688779874C015D018E0196
:100780000A5F1F4F16C0841B950BA60BB70BF5CF46
:100790004E815F816885798598018B8D9C8D0E9443
:1007A000581291E0891A9108A108B108882309F428
:1007B0008CCF81149104A104B10451F795CFDF913E
:1007C000CF911F910F91FF90EF90DF90CF90BF904E
:1007D000AF909F908F9008958F929F92AF92BF920B
:1007E000CF92DF92EF92FF920F931F93CF93DF93FD
:1007F00000D000D0CDB7DEB77C0180E2689FF00169
:100800001124EC5AFC4F9385917121F0842F82744E
:1008100009F08FC0142FD70152966C9352974091D4
:1008200000015091010160910201709103011E9637
:100830004D935D936D937C9351974489558960E006
:1008400070E0BA0155274427828D938DA0E0B0E077
:10085000482B592B6A2B7B2BD70157964D935D93D1
:100860006D937C935A978385887159F4848D958D07
:10087000A68DB78DF701838B948BA58BB68B81E00A
:1008800012C0803109F055C097012D5E3F4FD7014E
:100890005B968D919C915C970E941A19882309F4AC
:1008A00048C084E0F7018583812F8F70D7011496AB
:1008B0008C931497F70116821782108611861A9668
:1008C0001D921D921D921C921D9716FF34C0159605
:1008D0008C91813071F511FF2CC0F7014389548947
:1008E00065897689452B462B472B09F461C040E08A
:1008F00050E0BA01C7010E9455038823D1F0F701E7
:100900008788908CA18CB28CC38CD48C82E090E0D0
:10091000A0E0B0E0F60180839183A283B3839E01BF
:100920002F5F3F4FB501A401C6010E9458128111EB
:1009300004C080E03DC081E03BC000E010E09801D1
:10094000B501A401C6010E94B711882391F38980E3
:100950009A80AB80BC80D60157968C91803129F06B
:1009600088EF9FEFAFEFBFE004C088EF9FEFA0E0FC
:10097000B0E088169906AA06BB0688F2D7015796FA
:100980001D921D921D921C925A97F701138A148A88
:10099000158A168A848180688483C7010E941102A7
:1009A000882339F240E050E0BA01C7010E945503A4
:1009B0000F900F900F900F90DF91CF911F910F919B
:1009C000FF90EF90DF90CF90BF90AF909F908F906F
:1009D0000895CF93DF93EC010E941102882311F058
:1009E0001D8281E0DF91CF9108958FB7F8948091B7
:1009F00045038FBF089561E0FC0184810E94320E9F
:100A00008091440381111092440308958EBD00002B
:100A10000DB407FEFDCF8EB508958FEF0C9406053B
:100A20000F931F93CF93DF93EB010E94F50E8B0181
:100A30000E940D058F3F49F00E94F50E601B710B5F
:100A40006C177D07A8F380E001C081E0DF91CF91B2
:100A50001F910F910895CF93DF93EC018E8188232E
:100A600089F08F8198859C012F5F3F4F38872F83B6
:100A70008230924018F40E940D05F3CFCE010E94FF
:100A8000FB041E82DF91CF9108958CBD9DBD08951A
:100A9000CF93DF93EC0180914403811109C081E081
:100AA000809344038091AC069091AD060E94450569
:100AB00060E08C81DF91CF910C94320E8F929F92E7
:100AC000AF92BF92FF920F931F93CF93DF93EC01EE
:100AD000F62E49015A010E942B05CE010E944805BD
:100AE0006CE271E0CE010E9410058F2D80640E949F
:100AF000060508E110E0D501C401002E04C0B6953A
:100B0000A795979587950A94D2F70E9406050850F5
:100B10001109083F8FEF180771F7FF2029F088E0CF
:100B2000F81204C087E803C085E901C08FEF0E9476
:100B3000060510E00E940D058A8787FF04C01F3F4D
:100B400011F01F5FF7CFDF91CF911F910F91FF90B1
:100B5000BF90AF909F908F900895AF92BF92CF9229
:100B6000DF92EF92FF920F931F93CF93DF93EC01ED
:100B70006901C801820F931F8130924008F070C054
:100B80008E81882371F088819981AA81BB81841725
:100B90009507A607B70729F48F819885C816D90647
:100BA000B0F5488359836A837B838B85833039F022
:100BB00089E0440F551F661F771F8A95D1F79A0168
:100BC000AB0161E1CE010E945E05882319F083E04C
:100BD0008D8346C00E94F50E5B010E940D058A8739
:100BE0008F3F49F40E94F50E6A197B096D327140FE
:100BF000A0F38FE003C08E3F31F08DE08D83CE01F6
:100C00000E94FB042DC018861F8281E08E838F8195
:100C100098858C159D0540F40E940D058F8198855F
:100C2000019698878F83F3CF6701E00EF11EEC14D5
:100C3000FD0431F00E940D05F60181936F01F7CF9D
:100C40008F819885080F191F18870F83898588233E
:100C500019F00115124048F0CE010E942B0505C085
:100C6000CE010E94FB0480E001C081E0DF91CF91C2
:100C70001F910F91FF90EF90DF90CF90BF90AF90BA
:100C800008954F925F926F927F92AF92BF92CF92F0
:100C9000DF92EF92FF920F931F93CF93DF931F92F8
:100CA000CDB7DEB7FC012581222309F4C1C08481C0
:100CB00080FFBEC083899489A589B6894284538404
:100CC0006484758484159505A605B70509F4B0C03C
:100CD0006F015201F1E0BF22D6015B968D919C918C
:100CE0005C97B301A20139E07695679557954795D2
:100CF0003A95D1F7223071F4FC01828D938DA48D49
:100D0000B58D8A019B01080F191F2A1F3B1FC901BE
:100D1000B8014AC0DC0114961C9111501423A1148F
:100D2000B104F9F411111DC045284628472851F493
:100D3000F6018789908DA18DB28D86839783A087D8
:100D4000B1870FC0D60116964D915D916D917C9142
:100D5000199796012A5F3F4F0E945812882309F481
:100D600067C0F601238D348D86819781A085B1857A
:100D70000297A109B109AC01BD01F901058404C0C4
:100D8000440F551F661F771F0A94D2F786859785F3
:100D9000A089B189840F951FA61FB71FBC01CD0183
:100DA000610F711D811D911DD60114962C9126FF96
:100DB0000DC04090000150900101609002017090C0
:100DC0000301461657066806790699F440E00E942A
:100DD0006E11882369F1F501EC5AFC4FDE01119682
:100DE0009F012F5F3F4F2E173F0799F081918D9301
:100DF000FACFFE0131967F0101E010E09501AB01D1
:100E0000BC0180915405909155050E94AD05882341
:100E100079F0F60182859385A485B5850196A11D9B
:100E2000B11D82879387A487B587898190E002C02E
:100E30008FEF9FEF0F90DF91CF911F910F91FF9058
:100E4000EF90DF90CF90BF90AF907F906F905F90CA
:100E50004F9008952F923F924F925F926F927F92A0
:100E60008F929F92AF92BF92CF92DF92EF92FF92BA
:100E70000F931F93CF93DF93CDB7DEB72B970FB6AA
:100E8000F894DEBF0FBECDBF7C01FE013196CE01CE
:100E90000C966F0130E23193E817F907E1F7DA01B8
:100EA00030E087E09D91992331F19E3231F48A3010
:100EB00009F46BC138E08AE0F5CFEEE7F0E0449149
:100EC000442321F031969413FACF5FC1831708F4BD
:100ED0005CC14FED490F4E3508F057C141E0430F5B
:100EE000F601E30FF11D3FE9390F3A3108F4905252
:100EF0009083342FD7CF8981803209F446C1322EB6
:100F00008B01DB015B968D919C915C97F701948F2F
:100F1000838F16961D921D921D921C921997FB01AC
:100F20001286138614861586B12CF8018285938566
:100F3000A485B58543895489658976898417950781
:100F4000A607B70708F05BC025E0B695A79597956B
:100F500087952A95D1F7F82FFF70AF2ED8011596F7
:100F60008C91823008F411C1C8010E94410697FD9E
:100F70000CC1F80182859385A485B5854F96A11D86
:100F8000B11D82879387A487B587F0E2AF9EB00139
:100F900011246C5A7C4F6115710509F4F6C0DB0110
:100FA0008C91882319F0853EC1F4F1C0B1100EC0B8
:100FB000F701A28A8091000190910101A0910201A4
:100FC000B091030186879787A08BB18BDB018C9151
:100FD000882399F0BB24B394A8CF4BE050E0C6011E
:100FE0000E94CB27892B09F0A0CF832D80738033FB
:100FF00009F4CBC0432D6A2DC4C0BB24B394832D08
:101000008271823109F0C1C0BB20C1F0F701668551
:1010100077858089918941E00E946E11882309F4C7
:10102000B4C0D70152968C91B0E28B9FC0011124BD
:101030008C5A9C4F009709F078C0A7C0F8018581B1
:10104000823009F4A2C0C8010E945202882309F428
:101050009CC0D8015B96ED91FC915C9716968D90A3
:101060009D90AD90BC901997B2E08B1A9108A108A1
:10107000B108058404C0880C991CAA1CBB1C0A94E6
:10108000D2F786859785A089B189880E991EAA1EF8
:10109000BB1E2480E1E08E1A9108A108B10822202D
:1010A00009F124013501420C511C611C711C0E9484
:1010B0003311882309F469C0E4E5F3E0119225E0D7
:1010C000E435F207D9F74092000150920101609295
:1010D0000201709203018091460381608093460370
:1010E0002A94DDCFD8015B96ED91FC915C9780E06E
:1010F00092E0A0E0B0E0058404C0880F991FAA1F09
:10110000BB1F0A94D2F7F80143895489658976890F
:10111000840F951FA61FB71F838B948BA58BB68B4F
:10112000D70152961C9284E593E020E2FC011192D3
:101130002A95E9F72BE0F601DC0101900D922A9542
:10114000E1F721E238E2DC0151963C932E9350976F
:1011500040E058E01F965C934E931E9753963C9345
:101160002E93529759963C932E93589757965C938B
:101170004E9356970E943311882339F0432DF7017F
:101180006289C7010E94EC0305C080E003C0B11072
:1011900021CF0ECF2B960FB6F894DEBF0FBECDBF7A
:1011A000DF91CF911F910F91FF90EF90DF90CF9043
:1011B000BF90AF909F908F907F906F905F904F9077
:1011C0003F902F900895FC01818D928D009711F032
:1011D0000C9441068FEF9FEF08950F931F93CF93C9
:1011E000DF93FC01818D928D0097B9F0EF010E9491
:1011F00041068C010F3F8FEF180791F0898D9A8D72
:10120000FC0142855385648575854150510961090A
:1012100071090E945503C80105C080E090E002C03A
:101220008FEF9FEFDF91CF911F910F910895EF9274
:10123000FF920F931F93CF93DF93EC017901411538
:1012400051056105710511F482E13CC08B85833045
:1012500039F089E0440F551F661F771F8A95D1F733
:101260009A01AB0168E1CE010E945E05882311F06E
:1012700084E028C08EEF0E94060587018EEFF81AE1
:10128000F80181918F010E940605E016F106C1F771
:101290008FEF0E9406058FEF0E9406050E940D0544
:1012A0008A878F71853031F081E18D83CE010E9474
:1012B000FB0409C068E572E0CE010E9410058111AF
:1012C00007C085E18D83CE010E94FB0480E014C03D
:1012D00020E030E0A9016DE0CE010E945E058111A1
:1012E00009C00E940D05811105C0CE010E94FB04BA
:1012F00081E002C084E1E6CFDF91CF911F910F9191
:10130000FF90EF9008952F923F924F925F926F92CD
:101310007F928F929F92AF92BF92CF92DF92EF9285
:10132000FF920F931F93CF93DF9300D000D0CDB7E0
:10133000DEB78C015B011A01DC0115968C911597C3
:101340008130C9F414968C9181FF15C082FF1DC0B5
:10135000F801438954896589768982859385A485B6
:10136000B58584179507A607B70779F0C8010E94CD
:10137000550381110AC081E090E0D80113969C9337
:101380008E93129780E090E036C1610183C05B9636
:101390008D919C915C97FC0174802FEF270D2A01A1
:1013A0003B0139E076946794579447943A95D1F786
:1013B000722E74207A01F1E0FF22772009F476C0C2
:1013C00080E092E08E199F0946018C159D0508F476
:1013D0004C01D8015B962D913C915C9716968D91AE
:1013E0009D910D90BC91A02D0297A109B109F90121
:1013F000058404C0880F991FAA1FBB1F0A94D2F747
:101400004685578560897189840F951FA61FB71F70
:101410009C01AD01270D311D411D511D29013A01CE
:10142000811432E0930609F088C080910001909108
:101430000101A0910201B0910301481659066A0604
:101440007B0659F48FEF9FEFDC01809300019093AE
:101450000101A0930201B09303019501B301A20120
:1014600080915405909155050E941709882309F42D
:1014700082CF9EEFB91AC818D908F80182859385E2
:10148000A485B585880D991DA11DB11D82879387FF
:10149000A487B587D8011A964D915D916D917C9185
:1014A0001D97C114D10409F072CF87C0E114F10473
:1014B00009F086CF16964D915D916D917C911997AB
:1014C000411551056105710559F457968D919D910E
:1014D0000D90BC91A02D0097A105B10541F521C04B
:1014E0009E012F5F3F4F0E945812882309F44BCF73
:1014F00089819A81AB81BC81F801238D348DF901FA
:101500002789203129F048EF5FEF6FEF7FE004C0BB
:1015100048EF5FEF60E070E084179507A607B70714
:1015200030F0C8010E94520281114ACF24CFF80145
:1015300086839783A087B18743CFE114F10429F50F
:10154000D8011A964D915D916D917C911D9753969E
:101550008D919D910D90BC91A02D481759076A0758
:101560007B0798F00E943311882309F404CF40923E
:10157000000150920101609202017092030180917A
:10158000460381608093460308C041E0C301B20175
:101590000E946E11882309F4EECED501F701EC5AB2
:1015A000FC4F9F01280D391D2E173F0719F08D9113
:1015B0008193FACFA80CB91C5ECFF8018389948976
:1015C000A589B68984179507A607B70738F4438B12
:1015D000548B658B768B848180688483F801848149
:1015E00083FD02C0C10107C0C8010E941102882307
:1015F00009F4C1CEF7CF0F900F900F900F90DF91AD
:10160000CF911F910F91FF90EF90DF90CF90BF90FF
:10161000AF909F908F907F906F905F904F903F9092
:101620002F900895CF93DF931F92CDB7DEB76983D4
:1016300041E050E0BE016F5F7F4F0E9483090F9031
:10164000DF91CF910895CF93DF93EC01898D9A8D2F
:10165000009739F481E090E09B838A8380E090E0FA
:101660000BC0FC01138212820E948309E98DFA8D5E
:1016700022813381232B71F7DF91CF910895FC01F3
:10168000DB0112968D919C9113979383828389E35A
:1016900091E09183808314968C911497848315969E
:1016A0008C911597858316964D915D916D917C91E6
:1016B000199746835783608771871A964D915D917C
:1016C0006D917C911D9742875387648775871E961D
:1016D0004D915D916D917C91519746875787608BB5
:1016E000718B52968C915297828B53964D915D914E
:1016F0006D917C915697438B548B658B768B579667
:101700004D915D916D917C915A97478B508F618F70
:10171000728F5B968D919C915C97948F838F0895C7
:10172000FC011382128288EE93E0A0E0B0E0848393
:101730009583A683B78385E191E091838083128EA0
:10174000118E148608951F920F920FB60F921124D6
:101750002F933F934F935F936F937F938F939F93B9
:10176000AF93BF93EF93FF938091B900887F80364A
:1017700009F49CC068F5883209F45BC090F48031AC
:1017800009F454C038F4882309F4F6C0883009F409
:101790004DC0F6C0883109F44CC0803209F45DC0F8
:1017A000EFC0803409F468C048F4803309F455C0B0
:1017B000883309F0E5C08093A205D8C0803509F4CC
:1017C0004FC0883509F45DC0883409F0D9C0D6C04F
:1017D000883909F4C7C0A8F4883709F467C038F419
:1017E000883609F463C0803709F460C0C9C08838FE
:1017F00009F4B8C0803909F45FC0803809F0C0C06E
:101800005BC0803B09F486C038F4803A09F466C0B6
:10181000883A09F47FC0B4C0803C09F4A7C0883C72
:1018200009F4A4C0883B09F48AC0AAC080919F052E
:1018300010C09091A1058091A005981770F5E091D6
:10184000A10581E08E0F8093A105F0E0E258FA4FE8
:1018500080818093BB0085EC86C08093A2058EC0FA
:10186000E091A10581E08E0F8093A1058091BB00DE
:10187000F0E0E258FA4F80839091A1058091A00595
:101880006EC0E091A10581E08E0F8093A10580914B
:10189000BB00F0E0E258FA4F80838091A3058111EC
:1018A0006DC081E080939E0584EA61C083E08093EF
:1018B000A40510924303CFCF80914303803208F0F8
:1018C00051C0E091430381E08E0F809343038091E8
:1018D000BB00F0E0ED5DFC4F8083BDCF85EC8093D5
:1018E000BC001092A40580914303803230F4E09153
:1018F0004303F0E0ED5DFC4F10826091430370E024
:10190000E0915605F091570583E293E00995109216
:10191000430336C084E08093A40510922203109202
:101920002103E0915805F091590509958091210313
:10193000811105C081E08093210310920103E091A1
:10194000220381E08E0F80932203F0E0EF5FFC4FD3
:1019500080818093BB00909122038091210398178E
:1019600008F479CF85E88093BC000AC085EC8093A9
:10197000BC001092A40504C01092A2050E9451015F
:10198000FF91EF91BF91AF919F918F917F916F9157
:101990005F914F913F912F910F900FBE0F901F902D
:1019A0001895FC01538D448D252F30E0842F90E055
:1019B000821B930B541710F0CF960895019708954A
:1019C000FC01918D828D981761F0828DDF01A80F47
:1019D000B11D5D968C91928D9F5F9F73928F90E069
:1019E00008958FEF9FEF0895FC01918D828D9817D8
:1019F00031F0828DE80FF11D858D90E008958FEF15
:101A00009FEF0895FC01918D228D892F90E0805CDD
:101A10009F4F821B91098F739927089587EC95E05A
:101A20000E94020D21E0892B09F420E0822F089505
:101A3000FC01848DDF01A80FB11DA35ABF4F2C916B
:101A4000848D90E001968F739927848FA689B7893A
:101A50002C93A089B1898C91837080648C93938D31
:101A6000848D981306C00288F389E02D80818F7DD4
:101A700080830895EF92FF920F931F93CF93DF938C
:101A8000EC0181E0888F9B8D8C8D981305C0E889CF
:101A9000F989808185FD26C0F62E0B8D10E00F5F41
:101AA0001F4F0F731127E02E8C8DE8120CC00FB65C
:101AB00007FCFACFE889F989808185FFF5CFCE014F
:101AC0000E94180DF1CF8B8DFE01E80FF11DE35A36
:101AD000FF4FF0829FB7F8940B8FEA89FB898081D2
:101AE00080620AC09FB7F894EE89FF896083E88915
:101AF000F98980818370806480839FBF81E090E05A
:101B0000DF91CF911F910F91FF90EF900895CF93A8
:101B1000DF93EC01888D8823C9F0EA89FB898081F5
:101B200085FD05C0A889B9898C9186FD0FC00FB6C7
:101B300007FCF5CF808185FFF2CFA889B9898C9108
:101B400085FFEDCFCE010E94180DE7CFDF91CF9139
:101B5000089580E090E0892B29F00E940E0D8111FC
:101B60000C94000008953FB7F89480915003909131
:101B70005103A0915203B091530326B5A89B05C011
:101B80002F3F19F00196A11DB11D3FBFBA2FA92FFC
:101B9000982F8827820F911DA11DB11DBC01CD0179
:101BA00043E0660F771F881F991F4A95D1F7089564
:101BB0000E94C6271F920F920FB60F9211242F93E7
:101BC0003F934F935F936F937F938F939F93AF93C5
:101BD000BF93EF93FF9387EC95E00E94180DFF9160
:101BE000EF91BF91AF919F918F917F916F915F9195
:101BF0004F913F912F910F900FBE0F901F9018950E
:101C00001F920F920FB60F9211242F938F939F93D1
:101C1000EF93FF93E091D705F091D8058081E09193
:101C2000DD05F091DE0582FD12C090818091E00516
:101C30008F5F8F732091E105821751F0E091E005ED
:101C4000F0E0E953FA4F958F8093E00501C0808161
:101C5000FF91EF919F918F912F910F900FBE0F9059
:101C60001F90189590E0FC01E856FE4F2491FC016E
:101C7000E653FE4F3491FC01EA54FE4FE491EE230B
:101C800009F43CC0222339F1233091F038F421309B
:101C9000A9F0223001F584B58F7D12C0273091F074
:101CA0002830A1F02430B9F4809180008F7D03C0EA
:101CB000809180008F77809380000DC084B58F77EE
:101CC00084BD09C08091B0008F7703C08091B000BF
:101CD0008F7D8093B000F0E0EE0FFF1FE257FE4FC4
:101CE000A591B4919FB7F894611104C08C9130957F
:101CF000382302C0EC913E2B3C939FBF0895CF93B5
:101D0000DF9390E0FC01E653FE4F2491FC01EA547E
:101D1000FE4F8491882361F190E0880F991FFC01A8
:101D2000E859FF4FC591D491FC01E257FE4FA591B0
:101D3000B491611109C09FB7F894888120958223DE
:101D40008883EC912E230BC0623061F49FB7F89426
:101D50008881322F309583238883EC912E2B2C930E
:101D60009FBF06C08FB7F894E8812E2B28838FBFC2
:101D7000DF91CF9108958F929F92AF92BF92CF92B1
:101D8000DF92EF92FF926B017C010E94B30D4B0139
:101D90005C01C114D104E104F104F1F00E94B30D1F
:101DA000DC01CB0188199909AA09BB09883E934037
:101DB000A105B10570F321E0C21AD108E108F108CC
:101DC00088EE880E83E0981EA11CB11CC114D104BA
:101DD000E104F10419F7DDCFFF90EF90DF90CF9091
:101DE000BF90AF909F908F9008952FB7F894609117
:101DF0004C0370914D0380914E0390914F032FBF80
:101E000008951F920F920FB60F9211242F933F93B4
:101E10008F939F93AF93BF9380914C0390914D0309
:101E2000A0914E03B0914F0330914B0326E0230F56
:101E30002D3720F40296A11DB11D05C029E8230FFE
:101E40000396A11DB11D20934B0380934C039093E7
:101E50004D03A0934E03B0934F0380915003909194
:101E60005103A0915203B09153030196A11DB11DDE
:101E70008093500390935103A0935203B093530364
:101E8000BF91AF919F918F913F912F910F900FBE76
:101E90000F901F901895DC0180E0615040F09D91FB
:101EA000E82FE927F0E0E257FF4F8491F6CF08953D
:101EB000FC0190810180F281E02DF8948181892BD1
:101EC00081832281892F809528232283A2E0B0E09C
:101ED0001197F1F7218182238183A0E1B0E011976E
:101EE000F1F780817894E6E6F0E03197F1F79823F6
:101EF00081E009F480E00895FC0190810180F28185
:101F0000E02D892F809560FF12C0F89422818223F2
:101F100082838181892B8183A0E1B0E01197F1F761
:101F20008281982B928378948AE690E011C0F8948D
:101F30002281822382838181892B8183AEE7B0E075
:101F40001197F1F78281982B9283789486E090E044
:101F50000197F1F70895DF92EF92FF920F931F938D
:101F6000CF93DF93EC01D62EE42E08E010E0FF249F
:101F7000F39461E08D2D8F2109F460E0CE010E9481
:101F80007C0FFF0C01501109A1F7E11010C0F8946B
:101F9000E981FA8191818881809589238183E98112
:101FA000FA81928188818095892382837894DF9158
:101FB000CF911F910F91FF90EF90DF900895EF92D6
:101FC000FF920F931F93CF93DF938C017B0140E02F
:101FD00065E50E94AB0FE70188E0E80EF11C69910E
:101FE00040E0C8010E94AB0FCE15DF05C1F7DF91BD
:101FF000CF911F910F91FF90EF900895DC012C91EC
:102000001196ED91FC911297F8948181922F909501
:102010008923818378948DE7815009F130813223BF
:10202000D9F3F8948281892382838181822B8183F1
:102030007894ACEBB3E01197F1F7F8948181982391
:10204000918388E890E00197F1F78081282381E06F
:1020500009F080E07894E0E3F3E03197F1F7089538
:10206000CF92DF92EF92FF920F931F93CF93DF9364
:10207000EC0181E080935A0588E680937C051092FC
:102080005B0510927D0560E087EF96E00E94DE011F
:102090000E948C1867E070E088E690E00E94431888
:1020A00087EF96E00E9495018F77982F92959F7009
:1020B0001AEF082F919F000D112487EF96E00E94E0
:1020C00095019C01332794E0359527959A95E1F782
:1020D000F82E129FF00C112487EF96E00E949501D4
:1020E0009C01332744E0359527954A95E1F7E82E82
:1020F000129FE00C112487EF96E00E94950187EF74
:1021000096E00E9495019C01332754E03595279570
:102110005A95E1F7D82E129FD00C112487EF96E044
:102120000E9495019C01332764E0359527956A95B7
:10213000E1F7C82E129FC00C112487EF96E00E9491
:1021400095019C01332774E0359527957A95E1F741
:10215000129F800D11248883C982DA82EB82FC826F
:102160000D83CE01DF91CF911F910F91FF90EF90E2
:10217000DF90CF9008958F929F92AF92BF92CF92AF
:10218000DF92EF92FF92CF93DF93EC016A017B0124
:1021900080E8C81A83E4D80A8DE6E80A88E3F80ADA
:1021A0008CE3882E912CA12CB12CC701B601A5017E
:1021B00094010E9423256D83CA01B901A5019401F0
:1021C0000E9423256C83C701B60120E13EE040E078
:1021D00050E00E942325CA01B90128E130E040E027
:1021E00050E00E9423256B83C701B60120E831E54A
:1021F00041E050E00E94232518824881542F5370FB
:1022000081E009F080E090E0BC0163597E4F261721
:10221000370738F0281B390B2D5631404F5F488364
:10222000ECCF81E089838981E82FF0E0EF58FF4F00
:10223000E491511103C0823009F4EF5FF0E02E17F2
:102240003F0720F02E1B3F0B8F5FECCF2F5F2A83C1
:10225000DF91CF91FF90EF90DF90CF90BF90AF9044
:102260009F908F900895809146038823A9F1409113
:10227000000150910101609102017091030124E578
:1022800033E080915405909155050E941709811102
:1022900002C080E008954091470350914803609147
:1022A000490370914A03411551056105710591F08B
:1022B00024E533E080915405909155050E9417095B
:1022C000882339F310924703109248031092490370
:1022D00010924A031092460381E008958F929F92D4
:1022E000AF92BF92EF92FF920F931F93CF934B0148
:1022F0005C01C42F8091000190910101A091020125
:10230000B091030188159905AA05BB0501F10E944A
:102310003311811102C080E020C084E5E82E83E003
:10232000F82E00E012E020E030E0B501A401809139
:102330005405909155050E94AD05882361F3809264
:10234000000190920101A0920201B09203018091DC
:102350004603C82BC093460381E0CF911F910F9194
:10236000FF90EF90BF90AF909F908F9008954F9205
:102370005F926F927F928F929F92AF92BF92CF9215
:10238000DF92EF92FF920F931F93CF93DF93EC01B5
:10239000423051056105710510F480E078C08985EF
:1023A0009A85AB85BC850196A11DB11D8417950743
:1023B000A607B70790F3CB88DC88ED88FE888F8965
:1023C000803129F4BB27A72F962F852F09C0DB0169
:1023D000CA01E7E0B695A79597958795EA95D1F755
:1023E000480159012A013B01C80ED91EEA1EFB1EF5
:1023F0008091000190910101A0910201B09103012F
:10240000C816D906EA06FB0681F48F898031A9F443
:10241000B301A201552766277727440F551FFA01FC
:10242000EC5AFC4F9182808219C040E0C701B6018E
:102430000E946E118111E9CFB0CFB301A2014F7795
:10244000552766277727440F551F440F551FFA015C
:10245000EC5AFC4F80829182A282B3828091460323
:102460008160809346038A89823080F08D819E81CD
:10247000AF81B885C80ED91EEA1EFB1EC092470365
:10248000D0924803E0924903F0924A0381E0DF9141
:10249000CF911F910F91FF90EF90DF90CF90BF9061
:1024A000AF909F908F907F906F905F904F90089526
:1024B0008F929F92AF92BF92CF92DF92EF92FF9254
:1024C0000F931F93CF93DF93FC0181859285A385A2
:1024D000B4850196A11DB11D84179507A607B707FE
:1024E00010F480E05BC083889488A588B6888789CB
:1024F000803129F4BB27A72F962F852F09C0DB0138
:10250000CA01C7E0B695A79597958795CA95D1F763
:10251000E9016A017B018F01BC01CD01680D791DC4
:102520008A1D9B1D8090000190900101A0900201E6
:10253000B0900301681579058A059B0591F4F801AF
:1025400087898031A1F4DD24EE24FF24C601880FA1
:10255000991FFC01EC5AFC4F80819181A0E0B0E012
:1025600018C040E00E946E118111E9CFBACFE89403
:10257000C7F8DD24EE24FF24C601880F991F880FB9
:10258000991FFC01EC5AFC4F80819181A281B3819B
:10259000BF7088839983AA83BB8381E0DF91CF9149
:1025A0001F910F91FF90EF90DF90CF90BF90AF9071
:1025B0009F908F900895CF92DF92EF92FF920F93AA
:1025C0001F93CF93DF936C017A018B01C0E0D0E0C1
:1025D000CE15DF0581F0D8016D918D01D601ED9109
:1025E000FC910190F081E02DC6010995892B11F035
:1025F0002196EECF7E01C701DF91CF911F910F9100
:10260000FF90EF90DF90CF900895EF92FF920F939D
:102610001F93CF93DF93EC017B018A011B821A8207
:1026200088EE93E0A0E0B0E08C839D83AE83BF830F
:1026300085E191E0998388838DE190E00E94A52651
:102640009A8F898F009779F02DE1F701DC010190D5
:102650000D922A95E1F74CE050E0B801CE010C96BE
:102660000E94E327188EDF91CF911F910F91FF9069
:10267000EF9008950F931F93CF93DF93CDB7DEB7FD
:1026800029970FB6F894DEBF0FBECDBF8C018091A5
:102690004507909146070E94FE0F882309F1BE016D
:1026A0006F5F7F4FC8010E94051B8823C9F068E057
:1026B000CE0101960E944B0F9985891311C08D811F
:1026C0008F3361F020F48F3159F489E00CC08F35DD
:1026D00019F08F3739F004C08BE005C08AE003C0E1
:1026E00080E001C08CE029960FB6F894DEBF0FBEE3
:1026F000CDBFDF91CF911F910F910895BF92CF92DF
:10270000DF92EF92FF920F931F93CF93DF93EC0131
:102710006B018D85811105C0CE010E94FE0F8111D4
:1027200005C01B861D861C8680E060C040E060EF0F
:10273000CE010E94AB0F01E0E12CB12C11E0CE01E3
:102740000E94580FF82ECE010E94580F91E0F91206
:1027500003C08130B1F434C02E2D30E0F8121BC01C
:102760008B85181738F4FE01E20FF31F8381802355
:1027700041F402C0811729F0F12C193058F41C875C
:1027800009C0FE01EE0DF11D8381802B8383FF24A0
:10279000F39409C0B12EFE01E20FF31F9381802F45
:1027A0008095892383836F2DCE010E947C0F1F5F4C
:1027B000000F11F4E39401E087E08E1508F0BFCF1D
:1027C000113408F4AECFBB86B11002C081E08D8712
:1027D0008B81882309F4A5CFDE011396F6012B9691
:1027E0008D918193CA17DB07D9F781E0DF91CF91F3
:1027F0001F910F91FF90EF90DF90CF90BF900895C1
:10280000CF93DF93D82FC62F80911F078823C1F065
:1028100081E080935A0583E580937C0510925B05E7
:1028200010927D056D2F87EF96E00E94DE016C2FE0
:1028300087EF96E00E94DE01DF91CF910C948C1817
:1028400060E080911D070E94320E8D2F0E940605C8
:102850008C2F0E94060561E080911D07DF91CF91CA
:102860000C94320EEF92FF920F931F93CF93DF934E
:10287000EB018A0190911F07992309F442C0EE24CD
:10288000E394E0925A0593E5F92EF0927C051092BC
:102890005B0510927D05682F87EF96E00E94DE01B0
:1028A0000E948C18E0925A05F0927C0510925B050C
:1028B00010927D05BE0183E590E00E9443187801E7
:1028C000C701801B910B3091A5052091A6053217F9
:1028D00041F087EF96E00E949501F70181937F0117
:1028E000EFCFC817D90729F01092090781E080932C
:1028F0000A07DF91CF911F910F91FF90EF900C94F9
:102900008C18F82FF068FF2E6230710514F0806C7F
:10291000F82E60E080911D070E94320E8F2D0E94DC
:1029200006057801C701801B910B8C179D073CF4AD
:1029300080E00E940605F70181937F01F3CF61E0FB
:1029400080911D07DF91CF911F910F91FF90EF9024
:102950000C94320EFF920F931F93CF93DF931F922D
:10296000CDB7DEB7182F062FF42EAE014F5F5F4FA5
:1029700061E070E00E9432144981FF2049F021E0BB
:1029800030E001C0220F0A95EAF7242B298309C001
:1029900081E090E001C0880F0A95EAF780958423D2
:1029A00089836981812F0E9400140F90DF91CF915C
:1029B0001F910F91FF900895CF93DF93FB01228128
:1029C0003381DC0113963C932E93129744815581F9
:1029D0006681778114964D935D936D937C931797E1
:1029E000408551856285738518964D935D936D93EF
:1029F0007C931B971C96EF012C969C01275E3F4F02
:102A000049914D93A217B307D9F7218D328DFC015F
:102A1000328F218FDF91CF9108950F931F93CF9322
:102A2000DF93CDB7DEB729970FB6F894DEBF0FBEA0
:102A3000CDBF8C0180914507909146070E94FE0F03
:102A4000882309F43FC0BE016F5F7F4FC8010E9419
:102A5000051B8823B9F168E0CE0101960E944B0F57
:102A6000998589132FC02A8130E0A901542F44276A
:102A7000550F550F550F898128E0829FC001112401
:102A80009A01282B392BF80180818031C9F468859F
:102A900070E08F81AB01481B5109CA019695982FB0
:102AA0008827979587950E947726CB014097207FAE
:102AB00053E0220F331F5A95E1F7820F931F04C092
:102AC000C90102C080E894EE29960FB6F894DEBFE3
:102AD0000FBECDBFDF91CF911F910F910895CF937E
:102AE000DF93EC01E0914507F091460713861586C8
:102AF0001486DF011B96CF0103961E92A817B90713
:102B0000E1F7BE01CF010E947E13882349F067E000
:102B1000CE010E944B0F9F81891302C081E001C04A
:102B200080E0DF91CF910895DC01ED91FC9101905F
:102B3000F081E02D09946115710579F0FB01019098
:102B40000020E9F73197AF01461B570BDC01ED91EF
:102B5000FC910280F381E02D099480E090E00895DB
:102B60008F929F92AF92BF92EF92FF920F931F931B
:102B7000CF93DF93CDB7DEB7A1970FB6F894DEBF42
:102B80000FBECDBF7C01FA01CB0119A2223008F49F
:102B90002AE08E010F5D1F4F822E912CA12CB12CAB
:102BA000BF01A50194010E942325F901CA0101502A
:102BB00011096A3014F4605D01C0695CD8016C933E
:102BC000232B242B252B61F7B801C7010E949B15ED
:102BD000A1960FB6F894DEBF0FBECDBFDF91CF91A7
:102BE0001F910F91FF90EF90BF90AF909F908F90AB
:102BF00008957F928F929F92AF92BF92CF92DF9271
:102C0000EF92FF920F931F93CF93DF938C016A0192
:102C10007B01722E9A01AB01C701B6010E94722698
:102C2000882319F06FEC72E027C046015701E89441
:102C3000B7F82FEF3FEF4FE75FE7C501B4010E9400
:102C4000722681110DC02FEF3FEF4FE75FE7C501FF
:102C5000B4010E94FF2318161CF463ED72E00CC04F
:102C60002FEF3FEF4FE75FE4C701B6010E946D26EB
:102C7000181694F467ED72E0C801DF91CF911F91AF
:102C80000F91FF90EF90DF90CF90BF90AF909F900B
:102C90008F907F900C949B152FEF3FEF4FE75FECE9
:102CA000C701B6010E94FF2387FDE4CF20E030E09A
:102CB000A901C701B6010E94FF2387FF0AC06DE288
:102CC000C8010E949415EC01F7FAF094F7F8F0941B
:102CD00002C0C0E0D0E0B12C60E070E080E09FE393
:102CE0007B1441F020E030E040E251E40E94CC252A
:102CF000B394F6CFA70196010E9460256B017C0179
:102D00000E943E264B015C012AE0AB01BC01C801D8
:102D10000E94B015C80FD91F7720C1F1C501B401B9
:102D20000E9404249B01AC01C701B6010E945F25EB
:102D30006B017C016EE2C8010E949415C80FD91F77
:102D400020E030E040E251E4C701B6010E94652472
:102D50004B015C010E943E266B01E12CF12C2AE024
:102D6000B701A601C8010E94B015C80FD91FC7013D
:102D7000B6010E9404249B01AC01C501B4010E946C
:102D80005F256B017C017A947110DACFCE01DF915F
:102D9000CF911F910F91FF90EF90DF90CF90BF9058
:102DA000AF909F908F907F9008950F931F93CF9334
:102DB000DF93EC010E949B158C0166E871E0CE0167
:102DC0000E949B15800F911FDF91CF911F910F9152
:102DD00008950C949B152F923F924F925F926F92A1
:102DE0007F928F929F92AF92BF92CF92DF92EF929B
:102DF000FF920F931F93CF93DF93CDB7DEB7C756E4
:102E0000D1090FB6F894DEBF0FBECDBF4C016B01E8
:102E1000A6964FAFA69719A218A289E391E09F8FBB
:102E20008E8F1BA21C821B829A8389831E825E0165
:102E30008EE1A80EB11CC5010E94831976018E0196
:102E40000F5F1F4F250118016FE270E0C7010E945C
:102E5000D827009709F442C0F70120812F3221F4CE
:102E6000FFEFEF1AFF0AF0CF8E198D3008F08CE0DB
:102E7000682E712CA301B701CE01885A9F4F0E9482
:102E8000E327E8E5F0E0EC0FFD1FE60DF71D1082EB
:102E9000C8010E94E904F8018581882351F01EAE23
:102EA0001DAE89E391E09CAF8BAF21961FAE2197B9
:102EB00021C021E0AE01485A5F4FB201C8010E9413
:102EC0002A07882361F3E60CF71CC2010E94E9047B
:102ED000942D852D2801092F182FB6CFC7018C19E5
:102EE0009D09A8969FAF8EAFA897B201CE01CB9651
:102EF0000E943F0BA896EEADFFADA897CE0EDF1E49
:102F0000F6018081811109C0BE01655C7F4FC1015E
:102F10000E943F0B4BED52E032C019A218A289E388
:102F200091E09F8F8E8F1BA221968FAD21978111EB
:102F300004C0C4010E94900B26C0A6962FADA69790
:102F4000A601BE01655C7F4FC5010E942A07882348
:102F500081F3CE01CB960E94E904A6968FADA69789
:102F60008670863039F449A95AA96BA97CA9C50194
:102F70000E945503B501C1010E943F0BA601B1019A
:102F8000C4010E940513C401C959DF4F0FB6F8945C
:102F9000DEBF0FBECDBFDF91CF911F910F91FF908C
:102FA000EF90DF90CF90BF90AF909F908F907F90E9
:102FB0006F905F904F903F902F900895CF92DF9247
:102FC000EF92FF920F931F93CF93DF936B01770FD5
:102FD000EE08FF08F7FE1BC0EC016DE20E9494159D
:102FE0008C0144275527BA014C195D096E097F09E8
:102FF0002AE0CE010E94B015800F911FDF91CF9182
:103000001F910F91FF90EF90DF90CF9008952AE0ED
:10301000B701A601DF91CF911F910F91FF90EF9023
:10302000DF90CF900C94B015462F50E060E070E038
:103030002AE00C94B015E7ECF5E0A089B18982E0B4
:103040008C93A485B5851C92A685B78587E68C935D
:10305000108EA489B58986E08C93A289B3898C915E
:1030600080618C93A289B3898C9188608C93A289AA
:10307000B3898C9180688C930288F389E02D8081DC
:103080008F7D808308959091A4059111FCCF6132CA
:1030900008F060E291E09093A4059093A3052FEFD0
:1030A0002093A2051092A105260F2093A0059093CE
:1030B0009F0590919F05880F892B80939F05809194
:1030C0009E05813061F410929E0580919F0580934A
:1030D000BB008091BC0083FDF8CF85EC01C085EE7C
:1030E0008093BC008091A4058130E1F38091A1051B
:1030F000861710F46091A105AEE7B5E0E7EAF5E0C8
:1031000080E0861721F09D9191938F5FFACF109206
:10311000A6058093A505089530917D05313208F00C
:103120004BC08091A4058111FCCF90917C0522E0D9
:103130002093A40521E02093A3052FEF2093A2055F
:103140001092A1053093A005ECE5F5E0AEE7B5E0FF
:1031500020E0321721F041914D932F5FFACF10926A
:103160009F0520919F05990F922B90939F05909119
:103170009E05913061F410929E0590919F05909369
:10318000BB009091BC0093FDF8CF95EC01C095EE8B
:103190009093BC009091A4059230E1F39091A20528
:1031A0009F3F79F08091A205803241F08091A20585
:1031B000803331F084E005C081E003C082E001C0CB
:1031C00083E010925B0510927D0510925A050895D8
:1031D0001092A6051092A50510925B0510927D0530
:1031E0001092A40581E08093A30510929E0561E0F2
:1031F00082E10E94320E61E083E10E94320EE9EB2F
:10320000F0E080818E7F808380818D7F808380E26B
:103210008093B80085E48093BC0083E891E09093AC
:1032200059058093580584E891E090935705809361
:10323000560508954F925F926F927F92AF92BF9220
:10324000CF92DF92EF92FF920F931F93CF93DF9372
:1032500000D000D0CDB7DEB78C0149835A836B8391
:103260007C835901C12CD12C7601412C82E0582E4F
:10327000612C712C49815A816B817C819E012F5F69
:103280003F4FC8010E945812882351F1D301C20157
:10329000F801058404C0880F991FAA1FBB1F0A9458
:1032A000D2F7C80ED91EEA1EFB1E49815A816B81D6
:1032B0007C818789803129F088EF9FEFAFEFBFE0F5
:1032C00004C088EF9FEFA0E0B0E0481759076A07F5
:1032D0007B0780F2F501C082D182E282F38281E035
:1032E0000F900F900F900F90DF91CF911F910F9142
:1032F000FF90EF90DF90CF90BF90AF907F906F9056
:103300005F904F900895CF93DF93FC012581222396
:1033100011F080E049C0EC018091D1068031C1F408
:1033200082E08583178A108E118E128E8091D206CC
:103330009091D306A0E0B0E025E0880F991FAA1F66
:10334000BB1F2A95D1F7838B948BA58BB68B19C0A5
:103350008032F9F683E085834091D4065091D506FA
:103360006091D6067091D706478B508F618F728F10
:103370009F012D5E3F4F8AEB96E00E941A19882329
:1033800041F28AEB96E09C8F8B8F81E08C831E82CA
:103390001F82188619861A861B861C861D861E8625
:1033A0001F86188A198A1A8ADF91CF9108958F9201
:1033B0009F92AF92BF92CF92DF92EF92FF92CF9304
:1033C000DF93C82F8EEA96E09093550580935405BD
:1033D000CC2369F1C53010F080E00CC140E060E022
:1033E00070E0CB010E946E118823B1F320E1C29FEF
:1033F000C00111248C5B9C4FFC01E254FE4F2081E4
:103400002F7751F73C964081518162817381443618
:1034100051056105710500F33497C080D180E280C9
:10342000F380C114D104E104F10421F4D5CFC12CFF
:10343000D12C760140E0C701B6010E946E118823AD
:1034400059F280915F03909160038115924021F6BB
:10345000A0916403AA2309F4BFCF60916203709125
:1034600063036115710509F4B7CF2091610322232D
:1034700009F4B2CFA093CC062093BE0680E030E0E2
:1034800041E050E0C82FFA01082E02C0EE0FFF1FE6
:103490000A94E2F72E173F0739F08F5FC83091F793
:1034A00089E08093C70698CF8093C70620916A036E
:1034B00030916B032115310519F040E050E008C050
:1034C000209178033091790340917A0350917B03E6
:1034D0002093BF063093C0064093C1065093C206A6
:1034E00046015701860E971EA11CB11C8092CD0685
:1034F0009092CE06A092CF06B092D006E0916503DE
:10350000F0916603F093D306E093D206B0E00E94F8
:103510004525860E971EA81EB91E8092D40690924D
:10352000D506A092D606B092D70685E0EE0FFF1F13
:103530008A95E1F7E150FE4FEF2FFF27E6958E0EBB
:103540009F1EA11CB11C8092C8069092C906A09231
:10355000CA06B092CB06209167033091680321150B
:10356000310521F0A90160E070E008C040917403CA
:10357000509175036091760370917703D701C6016E
:1035800088199909AA09BB09840F951FA61FB71F9F
:1035900004C0B695A79597958795CA95D2F780935D
:1035A000C3069093C406A093C506B093C606853F94
:1035B0002FE09207A105B10510F48CE018C0853FFB
:1035C0009F4FA105B10510F480E111C080918003E7
:1035D00090918103A0918203B09183038093D406DC
:1035E0009093D506A093D606B093D70680E2809339
:1035F000D10681E0DF91CF91FF90EF90DF90CF90E7
:10360000BF90AF909F908F900895AF92BF92CF924E
:10361000DF92EF92FF920F931F93CF93DF938B0173
:10362000BC0180914507909146070E94DF0F40E062
:103630006EEB80914507909146070E94AB0FE80121
:10364000680189E0C80ED11CA0904507B0904607DC
:1036500088E0E82EF12C10E001E0C5010E94580F2F
:103660008111102B000F81E0E81AF108B1F71993CE
:10367000CC16DD0649F780914507909146070E94D8
:10368000FE0F91E0813009F090E0892FDF91CF911A
:103690001F910F91FF90EF90DF90CF90BF90AF9070
:1036A0000895CF93DF93CDB7DEB7C254D1090FB6DB
:1036B000F894DEBF0FBECDBF789484B5826084BD20
:1036C00084B5816084BD85B5826085BD85B5816026
:1036D00085BD80916E00816080936E0010928100A4
:1036E000809181008260809381008091810081605F
:1036F0008093810080918000816080938000809120
:10370000B10084608093B1008091B00081608093AB
:10371000B00080917A00846080937A0080917A0072
:10372000826080937A0080917A008E7F80937A0005
:1037300080917A00806880937A001092C100109284
:10374000A8061092A9061092AA061092AB06109233
:1037500066061092670610926806109269060E942B
:10376000F50E6B017C014B015C0108EB800E0BE058
:10377000901EA11CB11C0E94F50E6C157D058E05D6
:103780009F0528F086169706A806B906A0F787ECCD
:1037900095E09093A7068093A6060E941B1867E702
:1037A00071E08091A6069091A7060E94E9160E94FA
:1037B000F50E6B017C014B015C011AE0810E911C3E
:1037C000A11CB11C0E94F50E6C157D058E059F0590
:1037D00028F086169706A806B906A0F781E0809320
:1037E0007A060E941B1868EB7BE080E090E00E9464
:1037F000BB0E69E871E087EC95E00E94E9168091C4
:10380000DD06882321F088ED96E00E94E9041092FD
:10381000B9061092B7061092B4061092B3068AE069
:103820008093B2060E94F50E8B0161E08091B20692
:103830000E947F0E61E08091B2060E94320EFFB6B8
:10384000F8948091DE02811127C0E0ECF1E08491D0
:10385000E4EDF1E09491E82FF0E0EE0FFF1FE8595E
:10386000FF4FA591B491EC91E92321F461E08AE046
:103870000E94320E61E08AE00E947F0E8CB580616A
:103880008CBD8CB580648CBD61E08DE00E947F0EA4
:1038900061E08BE00E947F0E8091DE028F5F80935B
:1038A000DE02FFBE82E58093AC0681E08093AD0628
:1038B0008091AC069091AD060E944505FAE0FF2E7E
:1038C0008FEF0E940605FA94F110FACF8EEA96E087
:1038D0000E94480520E030E0A90160E08EEA96E011
:1038E0000E945E05F82E8093B80621E0821749F009
:1038F0000E94F50E601B710B613D774058F381E02B
:1039000056C02AEA31E040E050E068E08EEA96E0F6
:103910000E945E0582FF03C0F092B90610C0E4E089
:10392000FE2E0E940D058093B806FA94F110F9CF8F
:103930008A3A11F082E03BC082E08093B906809120
:10394000B906823031F4C12CD12CE12C70E4F72E71
:1039500003C0C12CD12C760120E030E0A90167E33F
:103960008EEA96E00E945E05A701960169E28EEA62
:1039700096E00E945E058093B806882349F00E9475
:10398000F50E601B710B613D774030F388E00FC08E
:103990008091B906823001F520E030E0A9016AE3A8
:1039A0008EEA96E00E945E05882341F086E08093CF
:1039B000B3068EEA96E00E94FB0428C00E940D0523
:1039C000807C803C19F483E08093B9060E940D0549
:1039D0000E940D050E940D058EEA96E00E94FB04F0
:1039E00080E58093AC0681E08093AD060E94D719F4
:1039F000882339F088ED96E00E948319882331F0FE
:103A000008C080E00E94D7198111F4CF61EA71E00B
:103A100002C06BEB71E087EC95E00E94D516CE01F9
:103A200001960E94900B18A28FEF89A381E08C8FE2
:103A300080E88F8F80E890E00E94A5269E8F8D8F72
:103A4000892B09F46CC041E063ED71E0CE018296F0
:103A50000E94EB16BE016E5D7F4FCE0101960E9463
:103A6000DC14EA8DFB8D309719F08581811103C03C
:103A700081E08C8F54C01C8E1FEF01E08C8D811172
:103A80005AC018A219A3CE0101960E94E30897FD1F
:103A900052C0833259F4CE0101960E94E30897FD8B
:103AA0004AC08D3081F38A30B1F7EDCF8D3059F3B4
:103AB000803249F327EF280F223028F38D3021F18F
:103AC0008A3011F148A1242F30E06F8D70E06150F1
:103AD0007109ED8DFE8D2617370724F0E20FF31FD5
:103AE000108229C04F5F48A3E20FF31F8D3321F4EA
:103AF000108288A189A301C08083CE0101960E9413
:103B0000E30897FFDBCF0C8F88A1ED8DFE8DE80FCA
:103B1000F11D108289A1813009F018C50CC06BEA33
:103B200072E087EC95E00E94E91663ED71E087ECA6
:103B300095E00E94D5160E94E81801E000935A050E
:103B400018E610937C0510925B0510927D0560E0ED
:103B500087EF96E00E94DE010E948C1861E070E021
:103B600088E690E00E94431887EF96E00E94950156
:103B700087FF38C062EE71E087EC95E00E94D516B1
:103B800000935A0510937C0510925B0510927D05F9
:103B900060E087EF96E00E94DE0160E087EF96E04C
:103BA0000E94DE0165E287EF96E00E94DE0160E19F
:103BB00087EF96E00E94DE0160E087EF96E00E94CA
:103BC000DE0160E187EF96E00E94DE0165E087EFAD
:103BD00096E00E94DE0169E187EF96E00E94DE0137
:103BE0000E948C18CE0182960E94301086E0FE0161
:103BF000B296A3E0B7E001900D928A95E1F766EFE7
:103C000071E087EC95E00E94E916E0914507F0919C
:103C10004607138615861486DF011B9633961E927F
:103C2000AE17BF07E1F7109243071092440701E077
:103C3000BE016E5D7F4F80914507909146070E94BF
:103C40007E13882309F465C067E0CE0182960E9446
:103C50004B0F99A58913ECCF80913F07811127C0A5
:103C600080914507909146070E94FE0FBE016E5D50
:103C70007F4F80914507909146070E94DF0F40E0FB
:103C800064EB80914507909146070E94AB0F8091AD
:103C90004507909146070E94580F182F80914507BD
:103CA000909146070E94FE0F112309F475C41091EC
:103CB00040078AA1803109F478C4CE0182960E941F
:103CC0003A13811718F48091400709C08AA1803106
:103CD00011F48CE004C0CE0182960E943A138093C6
:103CE0004007809143078F5F809343078AA1883202
:103CF00009F455C438F4803109F451C4823209F012
:103D000097CF4DC48B3309F44AC4823409F090CF65
:103D100046C46AE072E087EC95E00E94E916609183
:103D2000430787EC95E00E94141861E172E087EC8C
:103D300095E00E94D5166091040730910307432F48
:103D400050E08091050790E0E2E7F0E021E02617DF
:103D500030F47491870F911D2F5F3196F8CF633047
:103D600018F0337009F401966DE671E0469F9001FA
:103D7000479F300D569F300D1124215031094D5F62
:103D80005F4F5695479556954795240F351F280F39
:103D9000391FA8E1B0E00E945025209106077B0161
:103DA0008C01E20EF11C011D111DA8019701ACE36D
:103DB000B0E00E944525209107077B018C01E20EAF
:103DC000F11C011D111DA80197010E94452520919C
:103DD0000807AB01BC01420F511D611D711D42530B
:103DE000524D6848774CCE01CD960E94BB1047E1FA
:103DF0006EE772E0CE0182960E94EB16BE016E5D08
:103E00007F4F84E297E00E94DC14E0913D07F0913F
:103E10003E07309721F18581882309F16BE172E03B
:103E200087EC95E00E94E91662E372E084E297E095
:103E30000E94D51680913D0790913E07009761F052
:103E40000E94E90480913D0790913E070E943D2722
:103E500010923E0710923D0767E572E002C060E7EE
:103E600072E087EC95E00E94D51680911F078111C2
:103E70000E94E81860E08DE20E94001460E18DE28B
:103E80000E94001468E08DE20E940014AE014E5DB5
:103E90005F4F61E070E081E30E9432146AA16C7EA2
:103EA000636081E30E94001440E066E070E081E31B
:103EB0000E94AA1441E066E070E087E20E94AA1422
:103EC00040E065E070E087E20E94AA1440E064E010
:103ED00070E087E20E94AA146BE484E20E9400145E
:103EE00041E062E070E087E20E94AA1440E061E0F5
:103EF00070E087E20E94AA1440E060E070E087E290
:103F00000E94AA146BE485E20E9400146AE086E233
:103F10000E94001440E062E070E08AE20E94AA146D
:103F200040E061E070E08AE20E94AA1441E060E0B3
:103F300070E08AE20E94AA146AE08DE10E940014F7
:103F40006FE081E20E94001460E582E20E940014AA
:103F500068EC83E20E94001467E088E20E9400148B
:103F60006EE189E20E94001441E063E070E08EE2BD
:103F70000E94AA1441E064E070E08EE20E94AA145C
:103F800041E062E070E08EE20E94AA1441E065E048
:103F900070E08EE20E94AA1441E066E070E08EE2DA
:103FA0000E94AA1494EFC92EDD24D394E12CF12CA5
:103FB000CE0182960E94301086E0FE01B296A3E008
:103FC000B7E001900D928A95E1F7C0927206D09207
:103FD0007306E0927406F0927506109276061092BF
:103FE0007706109278061092790680916A06909171
:103FF0006B06A0916C06B0916D0680936E0690934F
:104000006F06A0937006B09371060E94F50E609340
:104010006A0670936B0680936C0690936D060E94FF
:10402000F50E4B015C0167E872E08091A606909165
:10403000A7060E94E91661E08091A6069091A70666
:104040000E9414186EE872E08091A6069091A7066F
:104050000E94E9162AE0B501A4018091A60690917C
:10406000A7060E94B01560E972E08091A6069091C3
:10407000A7060E94E91680916A0690916B06A091AE
:104080006C06B0916D06B501A401481B590B6A0B73
:104090007B0B2AE08091A6069091A7060E94B0159E
:1040A00060E972E08091A6069091A7060E94E91649
:1040B00040916A0650916B0660916C0670916D0696
:1040C00080916E0690916F06A0917006B091710676
:1040D000481B590B6A0B7B0B2AE08091A606909136
:1040E000A7060E94B01562E972E08091A606909141
:1040F000A7060E94E9166DEE72E08091A6069091E7
:10410000A7060E94E91662E972E08091A6069091E6
:10411000A7060E94E9166091EB027091EC02809173
:10412000A6069091A7060E94DE1762E972E08091D0
:10413000A6069091A7060E94E9166091E902709187
:10414000EA028091A6069091A7060E94DE1762E916
:1041500072E08091A6069091A7060E94E9166091F0
:10416000E7027091E8028091A6069091A7060E944E
:10417000DE1762E972E08091A6069091A7060E9480
:10418000E9164091E3025091E4026091E5027091DA
:10419000E60222E08091A6069091A7060E94F915FA
:1041A00064E972E08091A6069091A7060E94D51658
:1041B0000E94F50E60936A0670936B0680936C06FE
:1041C00090936D0680914507909146070E94FE0FDF
:1041D00040E06CEC80914507909146070E94AB0F40
:1041E00040913F0764E480914507909146070E9403
:1041F000AB0F809141078823D9F1E0914007E95046
:10420000E33040F4F0E0EE0FFF1FE55FFE4F00816A
:10421000118102C00EEE12E080914207882311F155
:1042200080913F0781111EC00E94F50E4B015C0179
:104230002801110F6608770880914507909146077D
:104240000E94580F8130A1F00E94F50EDC01CB01D5
:1042500084199509A609B70988159905AA05BB050A
:1042600058F306C0B801110F880B990B0E94BB0EC2
:10427000CE0182960E946F15811105C060E070E04A
:104280008EEF92EC14C0CE0182960E940D158138FB
:1042900004EE90079CF3BC01990F880B990B0E94C8
:1042A000062420E030E040E05CE30E946524609357
:1042B000DF027093E0028093E1029093E202CE016C
:1042C00082960E946F15811105C060E070E08EEF4C
:1042D00092EC14C0CE0182960E940D15813814EE26
:1042E00091079CF3BC01990F880B990B0E9406243F
:1042F00020E030E040E05CE30E94652420E030E014
:1043000040E151E40E94652420E030E040EA50E4BE
:104310000E94CC2520E030E040E052E40E9460257D
:104320006093E3027093E4028093E5029093E602C7
:1043300047E157E066E070E082E30E94321480912A
:104340001707909118079093EC028093EB028091ED
:10435000190790911A079093EA028093E9028091DD
:104360001B0790911C079093E8028093E702AE012F
:104370004E5D5F4F61E070E080E30E9432148AA1DD
:1043800086FFE1C047E16BE972E0CE0182960E94B0
:10439000EB16BE016E5D7F4F84E297E00E94DC1455
:1043A000E0913D07F0913E07309709F4C6C0858142
:1043B000882309F4C2C06BE172E087EC95E00E94AB
:1043C000E91665EA72E084E297E00E94E91669EA7C
:1043D00072E084E297E00E94E9166091EB0270912E
:1043E000EC0284E297E00E94DE1769EA72E084E260
:1043F00097E00E94E9166091E9027091EA0284E276
:1044000097E00E94DE1769EA72E084E297E00E947A
:10441000E9166091E7027091E80284E297E00E9459
:10442000DE1769EA72E084E297E00E94E9164091A3
:10443000DF025091E0026091E1027091E20222E01D
:1044400084E297E00E94F91569EA72E084E297E05D
:104450000E94E9164091E3025091E4026091E50266
:104460007091E60222E084E297E00E94F91569EA81
:1044700072E084E297E00E94E9164091030750E061
:104480004053584F052E000C660B770B2AE084E250
:1044900097E00E94B0156FE284E297E00E949415C5
:1044A0006091040784E297E00E9414186FE284E2AE
:1044B00097E00E9494156091050784E297E00E94BE
:1044C000141860E284E297E00E9494156091060758
:1044D00084E297E00E9414186AE384E297E00E9465
:1044E00094156091070784E297E00E9414186AE32C
:1044F00084E297E00E9494156091080784E297E0B7
:104500000E94141866E871E084E297E00E949B150F
:1045100080913D0790913E07009761F00E94E90469
:1045200080913D0790913E070E943D2710923E07E3
:1045300010923D0767E572E002C060E772E087EC29
:1045400095E00E94D5160E94A90D32CD98A199231D
:1045500029F0823018F06D8D7E8D02C061E771E028
:1045600087EC95E00E94E9166EED71E087EC95E02E
:104570000E94E91688A1882341F089A1823028F0A1
:104580006D8D7E8D680F711D02C061E771E087EC53
:1045900095E00E94D51672CA00933F0788CB8091A0
:1045A00044078F5F8093440743CB1D3008F08BCBCB
:1045B00090CBCF931092CA051092C90588EE93E074
:1045C000A0E0B0E08093CB059093CC05A093CD05FF
:1045D000B093CE0527E231E03093C8052093C7059C
:1045E00025EC30E03093D4052093D30524EC30E063
:1045F0003093D6052093D50520EC30E03093D805D4
:104600002093D70521EC30E03093DA052093D905CB
:1046100022EC30E03093DC052093DB0526EC30E023
:104620003093DE052093DD051092E0051092E10540
:104630001092E2051092E30510926A0610926B0642
:1046400010926C0610926D0610926E0610926F0614
:1046500010927006109271061092720610927306F4
:1046600010927406109275061092760610927706D4
:10467000109278061092790620E52093AC0621E08E
:104680002093AD061092B3061092B4061092B706AE
:104690001092B90642E050E060E070E04093BA0644
:1046A0005093BB066093BC067093BD061092D10672
:1046B0001092DB061092DA0629E331E03093D90636
:1046C0002093D8061092DD061092FA061092F90691
:1046D0008093FB069093FC06A093FD06B093FE0624
:1046E00083E691E09093F8068093F70660E082E01D
:1046F0000E947F0EECECF1E0E491E0936E07E8EBB2
:10470000F1E0E491F0E0EE0FFF1FE455FE4F8591DC
:1047100094919093700780936F071092790710928D
:104720007B0710927A07E9E7F7E081E797E01292BA
:104730008E179F07E1F78EE697E0909346078093E8
:104740004507109243071092440710923F0789E0F3
:1047500080934007C1E0C0934107C0934207109285
:1047600052071092510783E597E00E94900B84E274
:1047700097E00E94900B8AE090E090931E07809350
:104780001D07C0931F0780E49BE4ACE4B0E0809376
:10479000200790932107A0932207B0932307C0938B
:1047A000090710920A0783EC9BEAA6E7BBE3809314
:1047B0000B0790930C07A0930D07B0930E0788ED9D
:1047C0009BE6A6E7BBE380930F0790931007A093A7
:1047D0001107B093120782EF94EEA4E6BBE3809337
:1047E000130790931407A0931507B093160740E0A2
:1047F00050E0BA0183E097E0CF910C94BB100E9487
:10480000412408F481E00895E89409C097FB3EF440
:1048100090958095709561957F4F8F4F9F4F99230D
:10482000A9F0F92F96E9BB279395F695879577958B
:104830006795B795F111F8CFFAF4BB0F11F460FF4B
:104840001BC06F5F7F4F8F4F9F4F16C0882311F0A3
:1048500096E911C0772321F09EE8872F762F05C0B7
:10486000662371F096E8862F70E060E02AF09A9552
:10487000660F771F881FDAF7880F9695879597F947
:104880000895990F0008550FAA0BE0E8FEEF1616E1
:104890001706E807F907C0F012161306E407F50734
:1048A00098F0621B730B840B950B39F40A2661F0A8
:1048B000232B242B252B21F408950A2609F4A1404B
:1048C000A6958FEF811D811D08950E9478240C9478
:1048D000E9240E94DB2438F00E94E22420F0952392
:1048E00011F00C94D2240C94D82411240C941D257E
:1048F0000E94FA2470F3959FC1F3950F50E0551F65
:10490000629FF001729FBB27F00DB11D639FAA2724
:10491000F00DB11DAA1F649F6627B00DA11D661F73
:10492000829F2227B00DA11D621F739FB00DA11D94
:10493000621F839FA00D611D221F749F3327A00D4E
:10494000611D231F849F600D211D822F762F6A2FEA
:1049500011249F5750409AF0F1F088234AF0EE0F4F
:10496000FF1FBB1F661F771F881F91505040A9F77C
:104970009E3F510580F00C94D2240C941D255F3F7E
:10498000E4F3983ED4F3869577956795B795F795B8
:10499000E7959F5FC1F7FE2B880F911D9695879530
:1049A00097F9089597F99F6780E870E060E00895AF
:1049B0009FEF80EC089500240A9416161706180637
:1049C0000906089500240A94121613061406050613
:1049D0000895092E0394000C11F4882352F0BB0FA4
:1049E00040F4BF2B11F460FF04C06F5F7F4F8F4F07
:1049F0009F4F089557FD9058440F551F59F05F3F42
:104A000071F04795880F97FB991F61F09F3F79F0F0
:104A100087950895121613061406551FF2CF469572
:104A2000F1DF08C0161617061806991FF1CF8695F4
:104A30007105610508940895E894BB2766277727D8
:104A4000CB0197F90895A1E21A2EAA1BBB1BFD0109
:104A50000DC0AA1FBB1FEE1FFF1FA217B307E4075D
:104A6000F50720F0A21BB30BE40BF50B661F771FB5
:104A7000881F991F1A9469F7609570958095909595
:104A80009B01AC01BD01CF0108950E945025A59F57
:104A9000900DB49F900DA49F800D911D1124089539
:104AA000A29FB001B39FC001A39F700D811D11246F
:104AB000911DB29F700D811D1124911D08955058B4
:104AC000BB27AA270E9477250C94E9240E94DB24A7
:104AD00038F00E94E22420F039F49F3F19F426F4C4
:104AE0000C94D8240EF4E095E7FB0C94D224E92F23
:104AF0000E94FA2458F3BA176207730784079507D0
:104B000020F079F4A6F50C941C250EF4E0950B2EFC
:104B1000BA2FA02D0B01B90190010C01CA01A0010F
:104B20001124FF27591B99F0593F50F4503E68F16A
:104B30001A16F040A22F232F342F4427585FF3CFAB
:104B4000469537952795A795F0405395C9F77EF47C
:104B50001F16BA0B620B730B840BBAF09150A1F0C5
:104B6000FF0FBB1F661F771F881FC2F70EC0BA0F4B
:104B7000621F731F841F48F4879577956795B795D3
:104B8000F7959E3F08F0B0CF9395880F08F09927CE
:104B9000EE0F9795879508950E94E0250C94E924DF
:104BA0000E94E22458F00E94DB2440F029F45F3F89
:104BB00029F00C94D22451110C941D250C94D82466
:104BC0000E94FA2468F39923B1F3552391F3951BBE
:104BD000550BBB27AA2762177307840738F09F5F1E
:104BE0005F4F220F331F441FAA1FA9F335D00E2E8B
:104BF0003AF0E0E832D091505040E695001CCAF7F8
:104C00002BD0FE2F29D0660F771F881FBB1F2617BA
:104C100037074807AB07B0E809F0BB0B802DBF0191
:104C2000FF2793585F4F3AF09E3F510578F00C9460
:104C3000D2240C941D255F3FE4F3983ED4F386956F
:104C400077956795B795F7959F5FC9F7880F911D81
:104C50009695879597F90895E1E0660F771F881F6D
:104C6000BB1F621773078407BA0720F0621B730B20
:104C7000840BBA0BEE1F88F7E09508950E94022579
:104C800088F09F5798F0B92F9927B751B0F0E1F00D
:104C9000660F771F881F991F1AF0BA95C9F714C0BD
:104CA000B13091F00E941C25B1E008950C941C25B0
:104CB000672F782F8827B85F39F0B93FCCF38695F6
:104CC00077956795B395D9F73EF490958095709553
:104CD00061957F4F8F4F9F4F08950E94412408F4A4
:104CE0008FEF08950E944124880B990B089597FB3C
:104CF000072E16F4009407D077FD09D00E948B266A
:104D000007FC05D03EF4909581959F4F08957095CE
:104D100061957F4F0895AA1BBB1B51E107C0AA1FD5
:104D2000BB1FA617B70710F0A61BB70B881F991F4C
:104D30005A95A9F780959095BC01CD010895EE0F85
:104D4000FF1F0590F491E02D09940F931F93CF93CB
:104D5000DF938230910510F482E090E0E0917E07CD
:104D6000F0917F0720E030E0A0E0B0E0309719F14B
:104D7000408151810281138148175907C8F0841777
:104D8000950769F4109731F012960C9312971396C9
:104D90001C9327C000937E0710937F0722C0211524
:104DA000310519F04217530718F49A01BD01EF01BC
:104DB000DF01F801DBCF21153105F9F0281B390B94
:104DC0002430310580F48A819B816115710521F0C1
:104DD000FB019383828304C090937F0780937E07B7
:104DE000FE01329644C0FE01E20FF31F81939193BE
:104DF00022503109398328833AC020917C073091B1
:104E00007D07232B41F42091060130910701309357
:104E10007D0720937C072091040130910501211525
:104E2000310541F42DB73EB7409108015091090179
:104E3000241B350BE0917C07F0917D07E217F30707
:104E4000A0F42E1B3F0B2817390778F0AC014E5FFA
:104E50005F4F2417350748F04E0F5F1F50937D07B3
:104E600040937C078193919302C0E0E0F0E0CF0192
:104E7000DF91CF911F910F910895CF93DF9300970A
:104E800009F481C0FC01329713821282A0917E073F
:104E9000B0917F07109781F420813181820F931F99
:104EA00020917C0730917D072817390751F5F09341
:104EB0007D07E0937C0767C0ED0120E030E0CE176E
:104EC000DF0740F44A815B819E0141155105F1F0F5
:104ED000EA01F5CFD383C28340815181840F951FAE
:104EE000C817D90759F488819981840F951F0296B4
:104EF000918380838A819B819383828321153105ED
:104F000029F4F0937F07E0937E073DC0E901FB831E
:104F1000EA8349915991C40FD51FEC17FD0761F43D
:104F200080819181840F951F0296E901998388837E
:104F3000828193819B838A83E0E0F0E012968D91D9
:104F40009C911397009719F0FD01DC01F7CF8D912B
:104F50009C9111979D012E5F3F4F820F931F2091CF
:104F60007C0730917D072817390769F4309729F4B9
:104F700010927F0710927E0702C013821282B093B4
:104F80007D07A0937C07DF91CF91089581E090E0A9
:104F9000F8940C94F227FB01DC0104C08D91019080
:104FA000801921F441505040C8F7881B990B08958F
:104FB000FC018191861721F08823D9F7992708955C
:104FC0003197CF010895FB01DC014150504048F07A
:104FD00001900D920020C9F701C01D924150504030
:084FE000E0F70895F894FFCFFB
:104FE800FFFFFFFF000080078000005E00BC007725
:104FF80001000000003B01230B0E024A021A01E3E4
:1050080008ED08000000003A0DDB12D10C870D02F4
:105018000DE00CF40C00000000120BDB120E020D68
:105028000200000000D80DDB120E020D02D80DD8C8
:105038000DD80D00000000D80DDB120E020D020085
:10504800000000DE01B1010E028501A9019501866B
:10505800014552524F5200564D4450565F317C31F3
:105068005F564D4450560D0A00496E697469616C6B
:10507800697A696E6720534420636172642E2E2E0C
:1050880000534420696E697469616C697A61746956
:105098006F6E206661696C65642100534420696EF7
:1050A800697469616C697A6174696F6E20646F6E86
:1050B800652E00434F4E4649472E54585400203D14
:1050C8002000525443206973204E4F542072756E4D
:1050D8006E696E6721004C6F636174696E67206446
:1050E8006576696365732E2E2E00466F756E642093
:1050F8000020646576696365732E00577269746968
:105108006E6720746F206C6F672066696C652E2E41
:105118002E006576656E744E616D652C782C792C41
:105128007A2C74656D70432C74656D70462C6461BF
:10513800746554696D6500646F6E65207772697473
:10514800696E6720746F2053442066696C652E0071
:105158006572726F72206F70656E696E6720646128
:1051680074612E74787400564D4450455F003A328D
:105178003A007C005F564D44504500666F696E6B7F
:105188002E74787400544150002C004661696C6597
:105198006420746F206F70656E20636F6E66696738
:1051A80075726174696F6E2066696C653A20006E6D
:0E51B800616E00696E66006F7666002F000063
:107800000C94343C0C94513C0C94513C0C94513CE1
:107810000C94513C0C94513C0C94513C0C94513CB4
:107820000C94513C0C94513C0C94513C0C94513CA4
:107830000C94513C0C94513C0C94513C0C94513C94
:107840000C94513C0C94513C0C94513C0C94513C84
:107850000C94513C0C94513C0C94513C0C94513C74
:107860000C94513C0C94513C11241FBECFEFD8E036
:10787000DEBFCDBF11E0A0E0B1E0EAE8FFE702C063
:1078800005900D92A230B107D9F712E0A2E0B1E065
:1078900001C01D92AD30B107E1F70E942D3D0C945F
:1078A000C33F0C94003C982F95959595959595958B
:1078B000905D8F708A307CF0282F295A8091C0000B
:1078C00085FFFCCF9093C6008091C00085FFFCCF60
:1078D0002093C6000895282F205DF0CF982F809127
:1078E000C00085FFFCCF9093C6000895EF92FF92F1
:1078F0000F931F93EE24FF2487018091C00087FD22
:1079000017C00894E11CF11C011D111D81E2E8164D
:1079100081EAF80687E0080780E0180770F3E09135
:107920000401F091050109958091C00087FFE9CF1E
:107930008091C6001F910F91FF90EF9008950E94D3
:10794000763C982F8091C00085FFFCCF9093C600B5
:1079500091362CF490330CF09053892F089597555D
:10796000892F08951F930E949F3C182F0E949F3CCF
:107970001295107F810F1F9108951F93182F882350
:1079800021F00E94763C1150E1F71F9108951F935A
:10799000182F0E94763C803249F0809103018F5F5E
:1079A000809303018530C1F01F9108958091C0003C
:1079B00085FFFCCF84E18093C6008091C00085FFE5
:1079C000FCCF1093C6008091C00085FFFCCF80E102
:1079D0008093C6001F910895E0910401F091050184
:1079E00009951F9108950E94763C803241F0809164
:1079F00003018F5F80930301853081F008958091AA
:107A0000C00085FFFCCF84E18093C6008091C00058
:107A100085FFFCCF80E18093C6000895E0910401CA
:107A2000F09105010995089548EC50E08823A1F0F4
:107A30002D9A28EE33E0FA013197F1F721503040CA
:107A4000D1F72D9828EE33E0FA013197F1F7215064
:107A50003040D1F7815061F708953F924F925F9285
:107A60006F927F928F929F92AF92BF92CF92DF924E
:107A7000EF92FF920F931F93CF93DF93000082E06A
:107A80008093C00080E18093C4001092C50088E11B
:107A90008093C10086E08093C2005098589A259A3E
:107AA00081E00E94143D24E1F22E9EE1E92E85E959
:107AB000D82E0FE0C02E10E1B12EAA24A394B1E479
:107AC0009B2EA6E58A2EF2E57F2EE0E26E2E79E46B
:107AD000572E63E5462E50E5352E0E94763C8033C6
:107AE000B1F18133B9F1803409F46FC0813409F404
:107AF00076C0823409F485C0853409F488C08035A5
:107B000031F1823521F1813511F1853509F485C0D6
:107B1000863509F48DC0843609F496C0843709F49B
:107B200003C1853709F472C1863709F466C08091B4
:107B300003018F5F80930301853079F6E0910401A2
:107B4000F091050109950E94763C803351F60E9420
:107B5000F33CC3CF0E94763C803249F78091C0004D
:107B600085FFFCCFF092C6008091C00085FFFCCF5E
:107B70009092C6008091C00085FFFCCF8092C60025
:107B80008091C00085FFFCCF7092C6008091C0003C
:107B900085FFFCCF6092C6008091C00085FFFCCFBE
:107BA0005092C6008091C00085FFFCCF4092C60075
:107BB0008091C00085FFFCCF3092C6008091C0004C
:107BC00085FFFCCFB092C60088CF0E94763C8638F5
:107BD00008F4BDCF0E94763C0E94F33C7ECF0E9409
:107BE000763C803809F49CC0813809F40BC1823896
:107BF00009F430C1883909F48FC080E00E94C73C85
:107C00006CCF84E10E94BD3C0E94F33C66CF85E0CE
:107C10000E94BD3C0E94F33C60CF0E94763C809362
:107C200006010E94763C809307010E94F33C55CFE9
:107C30000E94763C803309F411C183E00E94BD3C70
:107C400080E00E94C73C49CF0E94763C80930902A5
:107C50000E94763C8093080280910C028E7F809374
:107C60000C020E94763C853409F409C18091080217
:107C700090910902892B89F000E010E00E94763C87
:107C8000F801E85FFE4F80830F5F1F4F809108026D
:107C9000909109020817190788F30E94763C8032F8
:107CA00009F045CF80910C0280FFF5C0609106017C
:107CB00070910701660F771F7093070160930601AB
:107CC000A0910802B09109021097C9F0E8E0F1E034
:107CD0009B01AD014E0F5F1FF999FECF32BD21BD53
:107CE000819180BDFA9AF99A2F5F3F4FE417F5070B
:107CF00099F76A0F7B1F70930701609306018091CB
:107D0000C00085FFFCCFF092C6008091C00085FFC7
:107D1000FCCFB092C600E1CE83E00E94C73CDDCE2E
:107D200082E00E94C73CD9CE0E94763C8093090233
:107D30000E94763C80930802809106019091070191
:107D4000880F991F90930701809306010E94763C4B
:107D5000853409F49AC080910C028E7F80930C02C6
:107D60000E94763C803209F0B8CE8091C00085FF39
:107D7000FCCFF092C600A0910802B09109021097C2
:107D8000C1F180910C02082F0170182F1695117007
:107D9000E0910601F0910701AF014F5F5F4FBA011B
:107DA00020E030E00023B1F4112339F49491809164
:107DB000C00085FFFCCF9093C6002F5F3F4FCB01E3
:107DC0000196FA012A173B0780F4BC014F5F5F4F11
:107DD000002351F3F999FECFF2BDE1BDF89A90B5B9
:107DE0008091C00085FFFCCFE6CF709307016093C0
:107DF00006018091C00085FDE5CE8091C00085FF21
:107E0000F8CFE0CE81E00E94C73C67CE0E94763C6E
:107E1000803209F08CCE8091C00085FFFCCFF092BB
:107E2000C6008091C00085FFFCCFE092C600809123
:107E3000C00085FFFCCFD092C6008091C00085FFB6
:107E4000FCCFC092C6008091C00085FFFCCFB092ED
:107E5000C60043CE80E10E94C73C3FCE0E94763CE4
:107E60000E94763C182F0E94763C112309F483C0AF
:107E7000113009F484C08FE00E94C73C2ECE80915F
:107E80000C02816080930C02F1CE80910C02816023
:107E900080930C0265CF809107018823880F880B9F
:107EA0008A2180930B028091060190910701880F2F
:107EB000991F90930701809306018091080280FF2B
:107EC00009C08091080290910902019690930902DD
:107ED00080930802F894F999FECF1127E0910601EA
:107EE000F0910701C8E0D1E0809108029091090269
:107EF000103091F40091570001700130D9F303E084
:107F000000935700E8950091570001700130D9F3B4
:107F100001E100935700E8950990199000915700EE
:107F200001700130D9F301E000935700E8951395F3
:107F3000103498F011270091570001700130D9F3E7
:107F400005E000935700E89500915700017001305B
:107F5000D9F301E100935700E8953296029709F0B2
:107F6000C7CF103011F00296E5CF11248091C000E8
:107F700085FFC5CEC8CE8EE10E94C73CAECD85E957
:0A7F80000E94C73CAACDF894FFCF81
:027F8A00800075
:040000030000780081
:00000001FF