:100000000C945D000C9485000C9485000C94850084
:100010000C9485000C9485000C9485000C9485004C
:100020000C9485000C9485000C9485000C9485003C
:100030000C9485000C9485000C9485000C9485002C
:100040000C945C060C9485000C947B020C94550275
:100050000C9485000C9485000C9485000C9485000C
:100060000C94FA020C9485000000000800020100C4
:100070000003040700000000000000000000000072
:10008000250028002B0000000000240027002A0083
:10009000010204081020408001020408102001021F
:1000A00004081020040404040404040402020202EC
:1000B00002020303030303035C0811241FBECFEFF6
:1000C000D8E0DEBFCDBF11E0A0E0B1E0E4EBF2E1AB
:1000D00002C005900D92A43BB107D9F723E0A4EB31
:1000E000B1E001C01D92A633B207E1F710E0CDE503
:1000F000D0E004C02197FE010E944D09CC35D10704
:10010000C9F70E94A6060C9458090C940000CF92DF
:10011000DF92EF92FF920F931F93CF93DF936C01C7
:100120007A018B01C0E0D0E0CE15DF0581F0D80167
:100130006D918D01D601ED91FC910190F081E02D42
:10014000C6010995892B11F02196EECF7E01C701DA
:10015000DF91CF911F910F91FF90EF90DF90CF90A3
:10016000089508950895FC01538D448D252F30E0A6
:10017000842F90E0821B930B541710F0CF960895B4
:1001800001970895FC01918D828D981761F0828D01
:10019000DF01A80FB11D5D968C91928D9F5F9F73BB
:1001A000928F90E008958FEF9FEF0895FC01918D5D
:1001B000828D981731F0828DE80FF11D858D90E0CA
:1001C00008958FEF9FEF0895FC01918D228D892F67
:1001D00090E0805C9F4F821B91098F73992708954F
:1001E00087E692E00E94E40021E0892B09F420E0F8
:1001F000822F0895FC01848DDF01A80FB11DA35A41
:10020000BF4F2C91848D90E001968F739927848F36
:10021000A689B7892C93A089B1898C918370806459
:100220008C93938D848D981306C00288F389E02DFA
:1002300080818F7D80830895EF92FF920F931F93AB
:10024000CF93DF93EC0181E0888F9B8D8C8D981389
:1002500005C0E889F989808185FD26C0F62E0B8DC1
:1002600010E00F5F1F4F0F731127E02E8C8DE812E7
:100270000CC00FB607FCFACFE889F989808185FFA9
:10028000F5CFCE010E94FA00F1CF8B8DFE01E80F71
:10029000F11DE35AFF4FF0829FB7F8940B8FEA8964
:1002A000FB89808180620AC09FB7F894EE89FF893C
:1002B0006083E889F98980818370806480839FBF2F
:1002C00081E090E0DF91CF911F910F91FF90EF902F
:1002D0000895CF93DF93EC01888D8823C9F0EA89D4
:1002E000FB89808185FD05C0A889B9898C9186FD2F
:1002F0000FC00FB607FCF5CF808185FFF2CFA8892C
:10030000B9898C9185FFEDCFCE010E94FA00E7CF2D
:10031000DF91CF91089580E090E0892B29F00E9431
:10032000F00081110C940000089585ED8093BC00CD
:100330008091BC0084FDFCCF10924302089540914F
:10034000D401262F30E0240F311D21323105DCF499
:10035000209143022430C9F4FC0180E090E086172C
:1003600058F43091D4012191DC01AC54BE4FA30F5D
:10037000B11D2C930196F3CF8091D401680F609347
:10038000D40180E0089581E0089582E00895089501
:10039000E091FC018091FB01E81730F4F0E0E350BC
:1003A000FE4F808190E008958FEF9FEF0895909128
:1003B000FC018091FB01981750F4E92FF0E0E35025
:1003C000FE4F208130E09F5F9093FC0102C02FEF31
:1003D0003FEFC90108958091FB0190E02091FC015D
:1003E000821B91090895CF92DF92EF92FF920F93B3
:1003F0001F93CF93DF937C01CB018A0120914402AC
:10040000222389F0EB016B01C40ED51ECC15DD054E
:1004100069F06991D701ED91FC910190F081E02D97
:10042000C7010995F3CF642F0E949F01C801DF9196
:10043000CF911F910F91FF90EF90DF90CF90089593
:10044000CF93DF931F92CDB7DEB76983209144022B
:100450002223D1F020916602203240F021E030E0EA
:10046000FC013383228380E090E015C08091450237
:10047000E82FF0E0EA5BFD4F998190838F5F8093D6
:1004800045028093660205C061E0CE0101960E949C
:100490009F0181E090E00F90DF91CF910895089542
:1004A00080E090E008950E9453091F920F920FB6CA
:1004B0000F9211242F933F934F935F936F937F93EA
:1004C0008F939F93AF93BF93EF93FF9387E692E051
:1004D0000E94FA00FF91EF91BF91AF919F918F9190
:1004E0007F916F915F914F913F912F910F900FBE30
:1004F0000F901F9018951F920F920FB60F92112414
:100500002F938F939F93EF93FF93E0917702F09156
:1005100078028081E0917D02F0917E0282FD12C01E
:100520009081809180028F5F8F732091810282176A
:1005300051F0E0918002F0E0E959FD4F958F8093F2
:10054000800201C08081FF91EF919F918F912F9147
:100550000F900FBE0F901F90189590E0FC01E85986
:10056000FF4F2491FC01E057FF4F3491FC01EC5503
:10057000FF4FE491EE2309F43CC0222339F12330EC
:1005800091F038F42130A9F0223001F584B58F7D47
:1005900012C0273091F02830A1F02430B9F48091B6
:1005A00080008F7D03C0809180008F7780938000D2
:1005B0000DC084B58F7784BD09C08091B0008F775E
:1005C00003C08091B0008F7D8093B000F0E0EE0F0B
:1005D000FF1FE458FF4FA591B4919FB7F8946111A4
:1005E00004C08C913095382302C0EC913E2B3C9393
:1005F0009FBF08951F920F920FB60F9211242F9351
:100600003F934F935F936F937F938F939F93AF939A
:10061000BF93EF93FF938091B900887F803609F4F0
:100620009CC068F5883209F45BC090F4803109F40D
:1006300054C038F4882309F4F6C0883009F44DC05A
:10064000F6C0883109F44CC0803209F45DC0EFC0B7
:10065000803409F468C048F4803309F455C0883305
:1006600009F0E5C080934102D8C0803509F44FC03D
:10067000883509F45DC0883409F0D9C0D6C08839FE
:1006800009F4C7C0A8F4883709F467C038F488367D
:1006900009F463C0803709F460C0C9C0883809F420
:1006A000B8C0803909F45FC0803809F0C0C05BC0B1
:1006B000803B09F486C038F4803A09F466C0883A71
:1006C00009F47FC0B4C0803C09F4A7C0883C09F499
:1006D000A4C0883B09F48AC0AAC080911E0210C041
:1006E0009091400280913F02981770F5E09140028E
:1006F00081E08E0F80934002F0E0E15EFD4F80814B
:100700008093BB0085EC86C0809341028EC0E0914F
:10071000400281E08E0F809340028091BB00F0E0A8
:10072000E15EFD4F80839091400280913F026EC058
:10073000E091400281E08E0F809340028091BB00E7
:10074000F0E0E15EFD4F80838091420281116DC037
:1007500081E080931D0284EA61C083E080934302BC
:100760001092F601CFCF8091F601803208F051C08F
:10077000E091F60181E08E0F8093F6018091BB003D
:10078000F0E0EA52FE4F8083BDCF85EC8093BC0041
:10079000109243028091F601803230F4E091F6012C
:1007A000F0E0EA52FE4F10826091F60170E0E091B5
:1007B000F701F091F80186ED91E009951092F601AC
:1007C00036C084E0809343021092D5011092D40188
:1007D000E091F901F091FA0109958091D40181111C
:1007E00005C081E08093D4011092B401E091D5015D
:1007F00081E08E0F8093D501F0E0EC54FE4F8081B4
:100800008093BB009091D5018091D401981708F492
:1008100079CF85E88093BC000AC085EC8093BC004A
:100820001092430204C0109241020E949501FF9170
:10083000EF91BF91AF919F918F917F916F915F9158
:100840004F913F912F910F900FBE0F901F901895D1
:100850008EBD00000DB407FEFDCF8EB50895282F84
:1008600030916602313208F04AC080914302811112
:10087000FCCF9091340342E0409343022093420224
:100880002FEF209341021092400230933F02E6E4A2
:10089000F2E0AFE1B2E020E0321721F041914D9358
:1008A0002F5FFACF10921E0220911E02990F922BF9
:1008B00090931E0290911D02913061F410921D02DE
:1008C00090911E029093BB009091BC0093FDF8CFD5
:1008D00095EC01C095EE9093BC009091430292304C
:1008E000E1F3909141029F3F79F080914102803283
:1008F00041F080914102803331F084E005C081E015
:1009000003C082E001C083E01092450210926602AB
:10091000109244020895CF93DF93D82FC62F809171
:1009200026038823C9F081E08093440283E5809305
:10093000340310924502109266026D2F84E093E01A
:100940000E9420026C2F84E093E00E94200281E04C
:10095000DF91CF910C942F0460E0809124030E94DA
:10096000AD028D2F0E9428048C2F0E94280461E084
:1009700080912403DF91CF910C94AD02EF92FF920E
:100980000F931F93CF93DF93EB018A01909126037E
:10099000992309F484C0FF24F394F092440293E570
:1009A000909334031092450210926602682F84E0FF
:1009B00093E00E94200281E00E942F04F092440202
:1009C0001092450210926602809143028111FCCF81
:1009D0008C2FC13208F080E291E090934302909313
:1009E00042022FEF2093410210924002280F2093E1
:1009F0003F0290931E0290911E02966A90931E02EF
:100A000090911D02913061F410921D0290911E028E
:100A10009093BB009091BC0093FDF8CF95EC01C082
:100A200095EE9093BC00909143029130E1F3909148
:100A30004002981710F480914002EFE1F2E0ADEF30
:100A4000B1E090E0981721F021912D939F5FFACFAC
:100A50001092FC019093FB017801C701801B910B60
:100A60003091FB012091FC01321741F084E093E0CA
:100A70000E94D701F70181937F01EFCFC817D907F3
:100A800029F01092100381E08093110381E0DF913F
:100A9000CF911F910F91FF90EF900C942F04F82F9E
:100AA000F068FF2E6230710514F0806CF82E60E063
:100AB000809124030E94AD028F2D0E9428047801AA
:100AC000C701801B910B8C179D073CF480E00E94AE
:100AD0002804F70181937F01F3CF61E08091240323
:100AE000DF91CF911F910F91FF90EF900C94AD0289
:100AF000FF920F931F93CF93DF931F92CDB7DEB773
:100B0000182F062FF42EAE014F5F5F4F61E070E0AB
:100B10000E94BE044981FF2049F021E030E001C07D
:100B2000220F0A95EAF7242B298309C081E090E07F
:100B300001C0880F0A95EAF780958423898369812B
:100B4000812F0E948B040F90DF91CF911F910F9105
:100B5000FF900895009769F0FC0101900020E9F7EB
:100B60003197AF01481B590BBC0187E692E00C940A
:100B7000870080E090E00895CF93DF930E94AA055C
:100B8000EC0189E591E00E94AA058C0F9D1FDF9181
:100B9000CF91089590E0FC01E057FF4F2491FC01B4
:100BA000EC55FF4F8491882399F090E0880F991FAE
:100BB000FC01EA57FF4FA591B491FC01E458FF4FA7
:100BC000859194918FB7F894EC91E22BEC938FBFC1
:100BD00008958F929F92AF92BF92CF92DF92EF9241
:100BE000FF920F931F93CF93DF93CDB7DEB7A197FB
:100BF0000FB6F894DEBF0FBECDBF6B017C0197FF2F
:100C00002BC06DE287E692E00E941C018C01222736
:100C10003327A9012C193D094E095F0919A2CE01FC
:100C200081967C019AE0892E912CA12CB12CCA01CD
:100C3000B901A50194010E942B09605DF70162933F
:100C40007F01211531054105510589F7CF010E942A
:100C5000AA05800F911F1DC09B01AC0119A28E0136
:100C60000F5D1F4F8AE0C82ED12CE12CF12CCA0158
:100C7000B901A70196010E942B09605DF8016293FA
:100C80008F01211531054105510589F7CF010E94DA
:100C9000AA05A1960FB6F894DEBF0FBECDBFDF91B7
:100CA000CF911F910F91FF90EF90DF90CF90BF9069
:100CB000AF909F908F9008951F920F920FB60F9252
:100CC00011242F933F938F939F93AF93BF93809162
:100CD000300390913103A0913203B09133033091EE
:100CE0002F0326E0230F2D3720F40296A11DB11DFE
:100CF00005C029E8230F0396A11DB11D20932F03E2
:100D00008093300390933103A0933203B093330365
:100D100080912B0390912C03A0912D03B0912E0371
:100D20000196A11DB11D80932B0390932C03A093DA
:100D30002D03B0932E03BF91AF919F918F913F915F
:100D40002F910F900FBE0F901F901895CF93DF93A8
:100D50001F92CDB7DEB7789484B5826084BD84B528
:100D6000816084BD85B5826085BD85B5816085BDA6
:100D700080916E00816080936E001092810080915E
:100D800081008260809381008091810081608093E6
:100D90008100809180008160809380008091B1000B
:100DA00084608093B1008091B00081608093B00036
:100DB00080917A00846080937A0080917A008260CA
:100DC00080937A0080917A008E7F80937A00809160
:100DD0007A00806880937A001092C1008DE00E94B2
:100DE000CA05E0917702F091780282E08083E09179
:100DF0007302F09174021082E0917502F091760214
:100E000087E6808310927F02E0917B02F0917C0262
:100E100086E08083E0917902F0917A02808180619E
:100E20008083E0917902F0917A02808188608083EA
:100E3000E0917902F0917A02808180688083E0916C
:100E40007902F0917A0280818F7D808384E291E043
:100E50000E94BC0589E591E00E94AA0580912603C5
:100E6000882399F11092FC011092FB011092450227
:100E7000109266021092430281E080934202109227
:100E80001D0261E082E10E94AD0261E083E10E9407
:100E9000AD028091B9008E7F8093B9008091B90036
:100EA0008D7F8093B90080E28093B80085E48093C1
:100EB000BC0081EB90E09093FA018093F90182EB02
:100EC00090E09093F8018093F70160E08DE20E943A
:100ED0008B0460E18DE20E948B0468E08DE20E9449
:100EE0008B04AE014F5F5F4F61E070E081E30E94D1
:100EF000BE0469816C7E636081E30E948B0440E0E4
:100F000066E070E081E30E94780541E066E070E011
:100F100087E20E94780540E065E070E087E20E9489
:100F2000780540E064E070E087E20E9478056BE4B9
:100F300084E20E948B0441E062E070E087E20E945C
:100F4000780540E061E070E087E20E94780540E0CB
:100F500060E070E087E20E9478056BE485E20E9421
:100F60008B046AE086E20E948B0440E062E070E05D
:100F70008AE20E94780540E061E070E08AE20E9427
:100F8000780541E060E070E08AE20E9478056AE05E
:100F90008DE10E948B046FE081E20E948B0460E58A
:100FA00082E20E948B0468EC83E20E948B0467E07B
:100FB00088E20E948B046EE189E20E948B0441E08A
:100FC00063E070E08EE20E94780541E064E070E04A
:100FD0008EE20E94780541E062E070E08EE20E94BD
:100FE000780541E065E070E08EE20E94780541E01E
:100FF00066E070E08EE20E9478054EE153E066E024
:1010000070E082E30E94BE04E0902003F090210390
:10101000009122031091230360911E0370911F031E
:10102000072E000C880B990B0E94E9058CE591E0D6
:101030000E94AA05B701FF0C880B990B0E94E905D5
:101040008CE591E00E94AA05B801110F880B990B5D
:101050000E94E90589E591E00E94AA05AE014F5F73
:101060005F4F61E070E080E30E94BE04198112FFCF
:1010700004C08FE591E00E94BC0513FF04C081E726
:1010800091E00E94BC0514FF04C084E891E00E9436
:10109000BC0515FF04C085E991E00E94BC0516FF60
:1010A00008C088EA91E00E94BC0561E08DE00E94E2
:1010B000AD020E948B01A1CFCF9310926A021092D1
:1010C000690288EE93E0A0E0B0E080936B02909319
:1010D0006C02A0936D02B0936E0224E031E0309375
:1010E00068022093670225EC30E03093740220936D
:1010F000730224EC30E0309376022093750220ECEA
:1011000030E0309378022093770221EC30E0309386
:101110007A022093790222EC30E030937C02209313
:101120007B0226EC30E030937E0220937D02109209
:101130008002109281021092820210928302109219
:101140000703109206038093080390930903A0936A
:101150000A03B0930B0386E191E09093050380931B
:1011600004038AE090E0909325038093240380E4B5
:101170009BE4ACE4B0E08093270390932803A09312
:101180002903B0932A0381E0809310031092110386
:1011900083EC9BEAA6E7BBE38093120390931303CF
:1011A000A0931403B093150388ED9BE6A6E7BBE379
:1011B0008093160390931703A0931803B093190319
:1011C00082EF94EEA4E6BBE380931A0390931B0393
:1011D000A0931C03B0931D0310922603CFB7F8947D
:1011E00080913503811124C0EEEAF0E08491EAE9B0
:1011F000F0E09491E82FF0E0EE0FFF1FEA57FF4F69
:10120000A591B491EC91E92321F461E08AE00E9478
:10121000AD028AE00E94CA058CB580618CBD8CB598
:1012200080648CBD8DE00E94CA058BE00E94CA05D7
:10123000809135038F5F80933503CFBF8CB58C6071
:101240008CBD809124030E94CA0561E08091240333
:10125000CF910C94AD02A1E21A2EAA1BBB1BFD017B
:101260000DC0AA1FBB1FEE1FFF1FA217B307E40785
:10127000F50720F0A21BB30BE40BF50B661F771FDD
:10128000881F991F1A9469F76095709580959095BD
:101290009B01AC01BD01CF010895EE0FFF1F05902A
:1012A000F491E02D099481E090E0F8940C945809B1
:0412B000F894FFCFE0
:1012B400000000001C018700B3006901E400C200C3
:1012C400D600000000002002F3015002C701EB0128
:1012D400D701C801537061726B46756E2041445842
:1012E4004C33343520416363656C65726F6D65748E
:1012F400657220486F6F6B2055702047756964656F
:10130400204578616D706C65000D0A002C20002A60
:101314002A2A20465245452046414C4C202A2A2A56
:10132400002A2A2A20494E414354495649545920F7
:101334002A2A2A002A2A2A20414354495649545920
:10134400202A2A2A002A2A2A20444F55424C452082
:10135400544150202A2A2A002A2A2A205441502063
:041364002A2A2A0007
:00000001FF
